{
  "_format": "hh-sol-artifact-1",
  "contractName": "PriceFeed",
  "sourceName": "contracts/core/PriceFeed.sol",
  "abi": [
    {
      "inputs": [
        {
          "internalType": "address",
          "name": "aggregator_",
          "type": "address"
        }
      ],
      "stateMutability": "nonpayable",
      "type": "constructor"
    },
    {
      "inputs": [],
      "name": "PRICE_PRECISION",
      "outputs": [
        {
          "internalType": "uint256",
          "name": "",
          "type": "uint256"
        }
      ],
      "stateMutability": "view",
      "type": "function"
    },
    {
      "inputs": [],
      "name": "answer",
      "outputs": [
        {
          "internalType": "int256",
          "name": "",
          "type": "int256"
        }
      ],
      "stateMutability": "view",
      "type": "function"
    },
    {
      "inputs": [
        {
          "internalType": "uint80",
          "name": "",
          "type": "uint80"
        }
      ],
      "name": "answers",
      "outputs": [
        {
          "internalType": "int256",
          "name": "",
          "type": "int256"
        }
      ],
      "stateMutability": "view",
      "type": "function"
    },
    {
      "inputs": [],
      "name": "getLatestAnswer",
      "outputs": [
        {
          "internalType": "uint256",
          "name": "",
          "type": "uint256"
        }
      ],
      "stateMutability": "view",
      "type": "function"
    },
    {
      "inputs": [],
      "name": "getRoundId",
      "outputs": [
        {
          "internalType": "uint256",
          "name": "",
          "type": "uint256"
        }
      ],
      "stateMutability": "view",
      "type": "function"
    },
    {
      "inputs": [
        {
          "internalType": "address",
          "name": "",
          "type": "address"
        }
      ],
      "name": "isAdmin",
      "outputs": [
        {
          "internalType": "bool",
          "name": "",
          "type": "bool"
        }
      ],
      "stateMutability": "view",
      "type": "function"
    },
    {
      "inputs": [],
      "name": "lastUpdateTimestamp",
      "outputs": [
        {
          "internalType": "uint256",
          "name": "",
          "type": "uint256"
        }
      ],
      "stateMutability": "view",
      "type": "function"
    },
    {
      "inputs": [],
      "name": "roundId",
      "outputs": [
        {
          "internalType": "uint80",
          "name": "",
          "type": "uint80"
        }
      ],
      "stateMutability": "view",
      "type": "function"
    },
    {
      "inputs": [],
      "name": "shouldUpdate",
      "outputs": [
        {
          "internalType": "bool",
          "name": "",
          "type": "bool"
        }
      ],
      "stateMutability": "view",
      "type": "function"
    },
    {
      "inputs": [],
      "name": "updateInterval",
      "outputs": [
        {
          "internalType": "uint256",
          "name": "",
          "type": "uint256"
        }
      ],
      "stateMutability": "view",
      "type": "function"
    },
    {
      "inputs": [],
      "name": "updatePrice",
      "outputs": [],
      "stateMutability": "nonpayable",
      "type": "function"
    }
  ],
  "bytecode": "0x6080604052610e10600455601e60055534801561001b57600080fd5b50604051610cc7380380610cc7833981810160405281019061003d9190610145565b806000806101000a81548173ffffffffffffffffffffffffffffffffffffffff021916908373ffffffffffffffffffffffffffffffffffffffff160217905550426003819055506001600760003373ffffffffffffffffffffffffffffffffffffffff1673ffffffffffffffffffffffffffffffffffffffff16815260200190815260200160002060006101000a81548160ff02191690831515021790555050610172565b600080fd5b600073ffffffffffffffffffffffffffffffffffffffff82169050919050565b6000610112826100e7565b9050919050565b61012281610107565b811461012d57600080fd5b50565b60008151905061013f81610119565b92915050565b60006020828403121561015b5761015a6100e2565b5b600061016984828501610130565b91505092915050565b610b46806101816000396000f3fe608060405234801561001057600080fd5b50600436106100a95760003560e01c80638cd221c9116100715780638cd221c91461015457806395082d251461017257806396237c0214610190578063a8c954d8146101ae578063f57ee77b146101cc578063fd2c80ae146101ea576100a9565b806314bcec9f146100ae57806324d7806c146100cc5780634c295ca3146100fc578063673a7e281461012c57806385bb7d6914610136575b600080fd5b6100b6610208565b6040516100c39190610530565b60405180910390f35b6100e660048036038101906100e191906105ae565b61020e565b6040516100f391906105f6565b60405180910390f35b61011660048036038101906101119190610653565b61022e565b6040516101239190610699565b60405180910390f35b610134610246565b005b61013e610463565b60405161014b9190610699565b60405180910390f35b61015c610469565b60405161016991906106c3565b60405180910390f35b61017a610485565b6040516101879190610530565b60405180910390f35b61019861048b565b6040516101a59190610530565b60405180910390f35b6101b66104b5565b6040516101c391906105f6565b60405180910390f35b6101d46104cf565b6040516101e19190610530565b60405180910390f35b6101f26104fb565b6040516101ff9190610530565b60405180910390f35b60035481565b60076020528060005260406000206000915054906101000a900460ff1681565b60066020528060005260406000206000915090505481565b600760003373ffffffffffffffffffffffffffffffffffffffff1673ffffffffffffffffffffffffffffffffffffffff16815260200190815260200160002060009054906101000a900460ff166102d2576040517f08c379a00000000000000000000000000000000000000000000000000000000081526004016102c99061073b565b60405180910390fd5b60008060008054906101000a900473ffffffffffffffffffffffffffffffffffffffff1673ffffffffffffffffffffffffffffffffffffffff1663feaf968c6040518163ffffffff1660e01b815260040160a060405180830381865afa158015610340573d6000803e3d6000fd5b505050506040513d601f19601f8201168201806040525081019061036491906107c8565b50935050925050600081116103ae576040517f08c379a00000000000000000000000000000000000000000000000000000000081526004016103a59061088f565b60405180910390fd5b600154821461045f57816001819055506001600260009054906101000a900469ffffffffffffffffffff166103e391906108de565b600260006101000a81548169ffffffffffffffffffff021916908369ffffffffffffffffffff160217905550806003819055508160066000600260009054906101000a900469ffffffffffffffffffff1669ffffffffffffffffffff1669ffffffffffffffffffff168152602001908152602001600020819055505b5050565b60015481565b600260009054906101000a900469ffffffffffffffffffff1681565b60055481565b60006104b0600554600a61049f9190610a4f565b60015461050190919063ffffffff16565b905090565b60006004546003546104c79190610a9a565b421015905090565b6000600260009054906101000a900469ffffffffffffffffffff1669ffffffffffffffffffff16905090565b60045481565b6000818361050f9190610ace565b905092915050565b6000819050919050565b61052a81610517565b82525050565b60006020820190506105456000830184610521565b92915050565b600080fd5b600073ffffffffffffffffffffffffffffffffffffffff82169050919050565b600061057b82610550565b9050919050565b61058b81610570565b811461059657600080fd5b50565b6000813590506105a881610582565b92915050565b6000602082840312156105c4576105c361054b565b5b60006105d284828501610599565b91505092915050565b60008115159050919050565b6105f0816105db565b82525050565b600060208201905061060b60008301846105e7565b92915050565b600069ffffffffffffffffffff82169050919050565b61063081610611565b811461063b57600080fd5b50565b60008135905061064d81610627565b92915050565b6000602082840312156106695761066861054b565b5b60006106778482850161063e565b91505092915050565b6000819050919050565b61069381610680565b82525050565b60006020820190506106ae600083018461068a565b92915050565b6106bd81610611565b82525050565b60006020820190506106d860008301846106b4565b92915050565b600082825260208201905092915050565b7f5072696365466565643a20666f7262696464656e000000000000000000000000600082015250565b60006107256014836106de565b9150610730826106ef565b602082019050919050565b6000602082019050818103600083015261075481610718565b9050919050565b60008151905061076a81610627565b92915050565b61077981610680565b811461078457600080fd5b50565b60008151905061079681610770565b92915050565b6107a581610517565b81146107b057600080fd5b50565b6000815190506107c28161079c565b92915050565b600080600080600060a086880312156107e4576107e361054b565b5b60006107f28882890161075b565b955050602061080388828901610787565b9450506040610814888289016107b3565b9350506060610825888289016107b3565b92505060806108368882890161075b565b9150509295509295909350565b7f526f756e64206e6f7420636f6d706c6574650000000000000000000000000000600082015250565b60006108796012836106de565b915061088482610843565b602082019050919050565b600060208201905081810360008301526108a88161086c565b9050919050565b7f4e487b7100000000000000000000000000000000000000000000000000000000600052601160045260246000fd5b60006108e982610611565b91506108f483610611565b9250828201905069ffffffffffffffffffff811115610916576109156108af565b5b92915050565b60008160011c9050919050565b6000808291508390505b60018511156109735780860481111561094f5761094e6108af565b5b600185161561095e5780820291505b808102905061096c8561091c565b9450610933565b94509492505050565b60008261098c5760019050610a48565b8161099a5760009050610a48565b81600181146109b057600281146109ba576109e9565b6001915050610a48565b60ff8411156109cc576109cb6108af565b5b8360020a9150848211156109e3576109e26108af565b5b50610a48565b5060208310610133831016604e8410600b8410161715610a1e5782820a905083811115610a1957610a186108af565b5b610a48565b610a2b8484846001610929565b92509050818404811115610a4257610a416108af565b5b81810290505b9392505050565b6000610a5a82610517565b9150610a6583610517565b9250610a927fffffffffffffffffffffffffffffffffffffffffffffffffffffffffffffffff848461097c565b905092915050565b6000610aa582610517565b9150610ab083610517565b9250828201905080821115610ac857610ac76108af565b5b92915050565b6000610ad982610517565b9150610ae483610517565b9250828202610af281610517565b91508282048414831517610b0957610b086108af565b5b509291505056fea2646970667358221220c267d73b6cf86e2374cf72690458b289995639251109f896f73d6b7680c7f75964736f6c63430008110033",
  "linkReferences": {},
  "deployedLinkReferences": {}
}