{
  "_format": "hh-sol-artifact-1",
  "contractName": "FeeManager",
  "sourceName": "contracts/core/FeeManager.sol",
  "abi": [
    {
      "inputs": [],
      "stateMutability": "nonpayable",
      "type": "constructor"
    },
    {
      "inputs": [
        {
          "internalType": "address",
          "name": "",
          "type": "address"
        }
      ],
      "name": "feeReserves",
      "outputs": [
        {
          "internalType": "uint256",
          "name": "",
          "type": "uint256"
        }
      ],
      "stateMutability": "view",
      "type": "function"
    },
    {
      "inputs": [
        {
          "internalType": "uint256",
          "name": "_sizeDelta",
          "type": "uint256"
        }
      ],
      "name": "getPositionFee",
      "outputs": [
        {
          "internalType": "uint256",
          "name": "",
          "type": "uint256"
        }
      ],
      "stateMutability": "view",
      "type": "function"
    },
    {
      "inputs": [
        {
          "internalType": "uint256",
          "name": "_feePoints",
          "type": "uint256"
        }
      ],
      "name": "setPositionFeePoints",
      "outputs": [],
      "stateMutability": "nonpayable",
      "type": "function"
    },
    {
      "inputs": [
        {
          "internalType": "address",
          "name": "_token",
          "type": "address"
        },
        {
          "internalType": "uint256",
          "name": "_amount",
          "type": "uint256"
        }
      ],
      "name": "updateFeeReserves",
      "outputs": [],
      "stateMutability": "nonpayable",
      "type": "function"
    }
  ],
  "bytecode": "0x6080604052612710600055601460015534801561001b57600080fd5b506106d88061002b6000396000f3fe608060405234801561001057600080fd5b506004361061004c5760003560e01c806317bbf25c146100515780631ce9cb8f146100815780634ef69750146100b1578063a8d257d4146100cd575b600080fd5b61006b6004803603810190610066919061035e565b6100e9565b604051610078919061039a565b60405180910390f35b61009b60048036038101906100969190610413565b61015e565b6040516100a8919061039a565b60405180910390f35b6100cb60048036038101906100c69190610440565b610176565b005b6100e760048036038101906100e2919061035e565b6102c1565b005b60008082036100fb5760009050610159565b600061013a60005461012c61011d6001546000546102cb90919063ffffffff16565b866102e190919063ffffffff16565b6102f790919063ffffffff16565b9050600061015182856102cb90919063ffffffff16565b905080925050505b919050565b60026020528060005260406000206000915090505481565b600073ffffffffffffffffffffffffffffffffffffffff168273ffffffffffffffffffffffffffffffffffffffff16036101e5576040517f08c379a00000000000000000000000000000000000000000000000000000000081526004016101dc906104dd565b60405180910390fd5b60008111610228576040517f08c379a000000000000000000000000000000000000000000000000000000000815260040161021f90610549565b60405180910390fd5b61027a81600260008573ffffffffffffffffffffffffffffffffffffffff1673ffffffffffffffffffffffffffffffffffffffff1681526020019081526020016000205461030d90919063ffffffff16565b600260008473ffffffffffffffffffffffffffffffffffffffff1673ffffffffffffffffffffffffffffffffffffffff168152602001908152602001600020819055505050565b8060018190555050565b600081836102d99190610598565b905092915050565b600081836102ef91906105cc565b905092915050565b60008183610305919061063d565b905092915050565b6000818361031b919061066e565b905092915050565b600080fd5b6000819050919050565b61033b81610328565b811461034657600080fd5b50565b60008135905061035881610332565b92915050565b60006020828403121561037457610373610323565b5b600061038284828501610349565b91505092915050565b61039481610328565b82525050565b60006020820190506103af600083018461038b565b92915050565b600073ffffffffffffffffffffffffffffffffffffffff82169050919050565b60006103e0826103b5565b9050919050565b6103f0816103d5565b81146103fb57600080fd5b50565b60008135905061040d816103e7565b92915050565b60006020828403121561042957610428610323565b5b6000610437848285016103fe565b91505092915050565b6000806040838503121561045757610456610323565b5b6000610465858286016103fe565b925050602061047685828601610349565b9150509250929050565b600082825260208201905092915050565b7f4665654d616e616765723a20746f6b656e203d3d203000000000000000000000600082015250565b60006104c7601683610480565b91506104d282610491565b602082019050919050565b600060208201905081810360008301526104f6816104ba565b9050919050565b7f4665654d616e616765723a20616d6f756e74203d3d2030000000000000000000600082015250565b6000610533601783610480565b915061053e826104fd565b602082019050919050565b6000602082019050818103600083015261056281610526565b9050919050565b7f4e487b7100000000000000000000000000000000000000000000000000000000600052601160045260246000fd5b60006105a382610328565b91506105ae83610328565b92508282039050818111156105c6576105c5610569565b5b92915050565b60006105d782610328565b91506105e283610328565b92508282026105f081610328565b9150828204841483151761060757610606610569565b5b5092915050565b7f4e487b7100000000000000000000000000000000000000000000000000000000600052601260045260246000fd5b600061064882610328565b915061065383610328565b9250826106635761066261060e565b5b828204905092915050565b600061067982610328565b915061068483610328565b925082820190508082111561069c5761069b610569565b5b9291505056fea2646970667358221220c7d7a841fa5879d51aeea6cd8f00ed9627e927801874a99fdf33da959550794964736f6c63430008110033",
  "linkReferences": {},
  "deployedLinkReferences": {}
}