{
  "_format": "hh-sol-artifact-1",
  "contractName": "PriceFeedKeeper",
  "sourceName": "contracts/core/PriceFeedKeeper.sol",
  "abi": [
    {
      "inputs": [],
      "stateMutability": "nonpayable",
      "type": "constructor"
    },
    {
      "inputs": [
        {
          "internalType": "bytes",
          "name": "checkData",
          "type": "bytes"
        }
      ],
      "name": "checkUpkeep",
      "outputs": [
        {
          "internalType": "bool",
          "name": "upkeepNeeded",
          "type": "bool"
        },
        {
          "internalType": "bytes",
          "name": "performData",
          "type": "bytes"
        }
      ],
      "stateMutability": "view",
      "type": "function"
    },
    {
      "inputs": [
        {
          "internalType": "bytes",
          "name": "performData",
          "type": "bytes"
        }
      ],
      "name": "performUpkeep",
      "outputs": [],
      "stateMutability": "nonpayable",
      "type": "function"
    }
  ],
  "bytecode": "0x608060405234801561001057600080fd5b50610a7d806100206000396000f3fe608060405234801561001057600080fd5b50600436106100365760003560e01c80634585e33b1461003b5780636e04ff0d14610057575b600080fd5b6100556004803603810190610050919061049d565b610088565b005b610071600480360381019061006c919061049d565b610175565b60405161007f929190610595565b60405180910390f35b600082828101906100999190610761565b9050600081519050600081116100e4576040517f08c379a00000000000000000000000000000000000000000000000000000000081526004016100db9061082d565b60405180910390fd5b60005b8181101561016e578281815181106101025761010161084d565b5b602002602001015173ffffffffffffffffffffffffffffffffffffffff1663673a7e286040518163ffffffff1660e01b8152600401600060405180830381600087803b15801561015157600080fd5b505af1158015610165573d6000803e3d6000fd5b505050506100e7565b5050505050565b600060606000848481019061018a9190610761565b9050600081519050600081116101d5576040517f08c379a00000000000000000000000000000000000000000000000000000000081526004016101cc906108ee565b60405180910390fd5b60008060005b83811015610287578481815181106101f6576101f561084d565b5b602002602001015173ffffffffffffffffffffffffffffffffffffffff1663a8c954d86040518163ffffffff1660e01b8152600401602060405180830381865afa158015610248573d6000803e3d6000fd5b505050506040513d601f19601f8201168201806040525081019061026c919061093a565b1561027657600192505b6001820191506001810190506101db565b506000915060008167ffffffffffffffff8111156102a8576102a76105c5565b5b6040519080825280602002602001820160405280156102d65781602001602082028036833780820191505090505b5090506000805b858110156103f1578681815181106102f8576102f761084d565b5b602002602001015173ffffffffffffffffffffffffffffffffffffffff1663a8c954d86040518163ffffffff1660e01b8152600401602060405180830381865afa15801561034a573d6000803e3d6000fd5b505050506040513d601f19601f8201168201806040525081019061036e919061093a565b156103ec576001945086818151811061038a5761038961084d565b5b60200260200101518383815181106103a5576103a461084d565b5b602002602001019073ffffffffffffffffffffffffffffffffffffffff16908173ffffffffffffffffffffffffffffffffffffffff16815250506001820191506001810190505b6102dd565b50816040516020016104039190610a25565b60405160208183030381529060405296508397505050505050509250929050565b6000604051905090565b600080fd5b600080fd5b600080fd5b600080fd5b600080fd5b60008083601f84011261045d5761045c610438565b5b8235905067ffffffffffffffff81111561047a5761047961043d565b5b60208301915083600182028301111561049657610495610442565b5b9250929050565b600080602083850312156104b4576104b361042e565b5b600083013567ffffffffffffffff8111156104d2576104d1610433565b5b6104de85828601610447565b92509250509250929050565b60008115159050919050565b6104ff816104ea565b82525050565b600081519050919050565b600082825260208201905092915050565b60005b8381101561053f578082015181840152602081019050610524565b60008484015250505050565b6000601f19601f8301169050919050565b600061056782610505565b6105718185610510565b9350610581818560208601610521565b61058a8161054b565b840191505092915050565b60006040820190506105aa60008301856104f6565b81810360208301526105bc818461055c565b90509392505050565b7f4e487b7100000000000000000000000000000000000000000000000000000000600052604160045260246000fd5b6105fd8261054b565b810181811067ffffffffffffffff8211171561061c5761061b6105c5565b5b80604052505050565b600061062f610424565b905061063b82826105f4565b919050565b600067ffffffffffffffff82111561065b5761065a6105c5565b5b602082029050602081019050919050565b600073ffffffffffffffffffffffffffffffffffffffff82169050919050565b60006106978261066c565b9050919050565b6106a78161068c565b81146106b257600080fd5b50565b6000813590506106c48161069e565b92915050565b60006106dd6106d884610640565b610625565b90508083825260208201905060208402830185811115610700576106ff610442565b5b835b81811015610729578061071588826106b5565b845260208401935050602081019050610702565b5050509392505050565b600082601f83011261074857610747610438565b5b81356107588482602086016106ca565b91505092915050565b6000602082840312156107775761077661042e565b5b600082013567ffffffffffffffff81111561079557610794610433565b5b6107a184828501610733565b91505092915050565b600082825260208201905092915050565b7f5072696365466565644b65657065723a20706572666f726d4c656e677468203d60008201527f3d20300000000000000000000000000000000000000000000000000000000000602082015250565b60006108176023836107aa565b9150610822826107bb565b604082019050919050565b600060208201905081810360008301526108468161080a565b9050919050565b7f4e487b7100000000000000000000000000000000000000000000000000000000600052603260045260246000fd5b7f5072696365466565644b65657065723a20636865636b4c656e677468203d3d2060008201527f3000000000000000000000000000000000000000000000000000000000000000602082015250565b60006108d86021836107aa565b91506108e38261087c565b604082019050919050565b60006020820190508181036000830152610907816108cb565b9050919050565b610917816104ea565b811461092257600080fd5b50565b6000815190506109348161090e565b92915050565b6000602082840312156109505761094f61042e565b5b600061095e84828501610925565b91505092915050565b600081519050919050565b600082825260208201905092915050565b6000819050602082019050919050565b61099c8161068c565b82525050565b60006109ae8383610993565b60208301905092915050565b6000602082019050919050565b60006109d282610967565b6109dc8185610972565b93506109e783610983565b8060005b83811015610a185781516109ff88826109a2565b9750610a0a836109ba565b9250506001810190506109eb565b5085935050505092915050565b60006020820190508181036000830152610a3f81846109c7565b90509291505056fea264697066735822122011f5715417c242735b28d03aa8e7dbb3c3e34ed07f12e251d6c911718b79ae3264736f6c63430008110033",
  "linkReferences": {},
  "deployedLinkReferences": {}
}