{
  "_format": "hh-sol-artifact-1",
  "contractName": "TokenUtils",
  "sourceName": "contracts/core/TokenUtils.sol",
  "abi": [
    {
      "inputs": [
        {
          "internalType": "address",
          "name": "_tokenManager",
          "type": "address"
        }
      ],
      "stateMutability": "nonpayable",
      "type": "constructor"
    },
    {
      "inputs": [
        {
          "internalType": "address",
          "name": "_token",
          "type": "address"
        }
      ],
      "name": "getDecimal",
      "outputs": [
        {
          "internalType": "uint256",
          "name": "",
          "type": "uint256"
        }
      ],
      "stateMutability": "view",
      "type": "function"
    },
    {
      "inputs": [
        {
          "internalType": "address",
          "name": "_token",
          "type": "address"
        }
      ],
      "name": "getPrice",
      "outputs": [
        {
          "internalType": "uint256",
          "name": "",
          "type": "uint256"
        }
      ],
      "stateMutability": "view",
      "type": "function"
    },
    {
      "inputs": [],
      "name": "initialization",
      "outputs": [],
      "stateMutability": "nonpayable",
      "type": "function"
    },
    {
      "inputs": [
        {
          "internalType": "address",
          "name": "",
          "type": "address"
        }
      ],
      "name": "stableToken",
      "outputs": [
        {
          "internalType": "bool",
          "name": "",
          "type": "bool"
        }
      ],
      "stateMutability": "view",
      "type": "function"
    },
    {
      "inputs": [
        {
          "internalType": "address",
          "name": "_token",
          "type": "address"
        },
        {
          "internalType": "uint256",
          "name": "_tokenAmount",
          "type": "uint256"
        }
      ],
      "name": "tokenToUsd",
      "outputs": [
        {
          "internalType": "uint256",
          "name": "",
          "type": "uint256"
        }
      ],
      "stateMutability": "view",
      "type": "function"
    },
    {
      "inputs": [
        {
          "internalType": "address",
          "name": "_token",
          "type": "address"
        },
        {
          "internalType": "uint256",
          "name": "_usdAmount",
          "type": "uint256"
        }
      ],
      "name": "usdToToken",
      "outputs": [
        {
          "internalType": "uint256",
          "name": "",
          "type": "uint256"
        }
      ],
      "stateMutability": "view",
      "type": "function"
    },
    {
      "inputs": [
        {
          "internalType": "address",
          "name": "_collateralToken",
          "type": "address"
        },
        {
          "internalType": "address",
          "name": "_indexToken",
          "type": "address"
        },
        {
          "internalType": "bool",
          "name": "_isLong",
          "type": "bool"
        }
      ],
      "name": "validPositionToken",
      "outputs": [],
      "stateMutability": "view",
      "type": "function"
    },
    {
      "inputs": [
        {
          "internalType": "address",
          "name": "",
          "type": "address"
        }
      ],
      "name": "whitelistToken",
      "outputs": [
        {
          "internalType": "bool",
          "name": "",
          "type": "bool"
        }
      ],
      "stateMutability": "view",
      "type": "function"
    }
  ],
  "bytecode": "0x60806040523480156200001157600080fd5b50604051620029ca380380620029ca8339818101604052810190620000379190620000e8565b806000806101000a81548173ffffffffffffffffffffffffffffffffffffffff021916908373ffffffffffffffffffffffffffffffffffffffff160217905550506200011a565b600080fd5b600073ffffffffffffffffffffffffffffffffffffffff82169050919050565b6000620000b08262000083565b9050919050565b620000c281620000a3565b8114620000ce57600080fd5b50565b600081519050620000e281620000b7565b92915050565b6000602082840312156200010157620001006200007e565b5b60006200011184828501620000d1565b91505092915050565b6128a0806200012a6000396000f3fe60806040523480156200001157600080fd5b5060043610620000945760003560e01c8063966da2b81162000063578063966da2b81462000171578063bd1b129814620001a7578063c172085e14620001dd578063db75247914620001e95762000094565b8063109f2943146200009957806341976e0914620000cf5780636247f6f2146200010557806368ce13d6146200013b575b600080fd5b620000b76004803603810190620000b191906200114b565b62000209565b604051620000c691906200119a565b60405180910390f35b620000ed6004803603810190620000e791906200114b565b62000229565b604051620000fc9190620011d2565b60405180910390f35b6200012360048036038101906200011d91906200114b565b62000303565b6040516200013291906200119a565b60405180910390f35b62000159600480360381019062000153919062001220565b62000323565b604051620001689190620011d2565b60405180910390f35b6200018f60048036038101906200018991906200114b565b620003ac565b6040516200019e9190620011d2565b60405180910390f35b620001c56004803603810190620001bf919062001220565b620003f5565b604051620001d49190620011d2565b60405180910390f35b620001e762000469565b005b62000207600480360381019062000201919062001298565b62000d8f565b005b60046020528060005260406000206000915054906101000a900460ff1681565b6000600160008373ffffffffffffffffffffffffffffffffffffffff1673ffffffffffffffffffffffffffffffffffffffff16815260200190815260200160002060009054906101000a900473ffffffffffffffffffffffffffffffffffffffff1673ffffffffffffffffffffffffffffffffffffffff166396237c026040518163ffffffff1660e01b8152600401602060405180830381865afa158015620002d6573d6000803e3d6000fd5b505050506040513d601f19601f82011682018060405250810190620002fc91906200130b565b9050919050565b60036020528060005260406000206000915054906101000a900460ff1681565b6000808203620003375760009050620003a6565b60006200034484620003ac565b90506000620003538562000229565b9050600081036200036a57600092505050620003a6565b620003a1816200039284600a620003829190620014c0565b87620010a390919063ffffffff16565b620010bb90919063ffffffff16565b925050505b92915050565b6000600260008373ffffffffffffffffffffffffffffffffffffffff1673ffffffffffffffffffffffffffffffffffffffff168152602001908152602001600020549050919050565b600080820362000409576000905062000463565b6000620004168462000229565b905060006200042585620003ac565b90506200045e81600a6200043a9190620014c0565b6200044f8487620010a390919063ffffffff16565b620010bb90919063ffffffff16565b925050505b92915050565b731b44f3514812d835eb1bdb0acb33d3fa3351ee436040516200048c90620010d3565b62000498919062001522565b604051809103906000f080158015620004b5573d6000803e3d6000fd5b50600160008060009054906101000a900473ffffffffffffffffffffffffffffffffffffffff1673ffffffffffffffffffffffffffffffffffffffff1663c1733f686040518163ffffffff1660e01b81526004016200051490620015a0565b602060405180830381865afa15801562000532573d6000803e3d6000fd5b505050506040513d601f19601f82011682018060405250810190620005589190620015d9565b73ffffffffffffffffffffffffffffffffffffffff1673ffffffffffffffffffffffffffffffffffffffff16815260200190815260200160002060006101000a81548173ffffffffffffffffffffffffffffffffffffffff021916908373ffffffffffffffffffffffffffffffffffffffff16021790555073694aa1769357215de4fac081bf1f309adc325306604051620005f390620010d3565b620005ff919062001522565b604051809103906000f0801580156200061c573d6000803e3d6000fd5b50600160008060009054906101000a900473ffffffffffffffffffffffffffffffffffffffff1673ffffffffffffffffffffffffffffffffffffffff1663c1733f686040518163ffffffff1660e01b81526004016200067b906200165b565b602060405180830381865afa15801562000699573d6000803e3d6000fd5b505050506040513d601f19601f82011682018060405250810190620006bf9190620015d9565b73ffffffffffffffffffffffffffffffffffffffff1673ffffffffffffffffffffffffffffffffffffffff16815260200190815260200160002060006101000a81548173ffffffffffffffffffffffffffffffffffffffff021916908373ffffffffffffffffffffffffffffffffffffffff1602179055507314866185b1962b63c3ea9e03bc1da838bab34c196040516200075a90620010d3565b62000766919062001522565b604051809103906000f08015801562000783573d6000803e3d6000fd5b50600160008060009054906101000a900473ffffffffffffffffffffffffffffffffffffffff1673ffffffffffffffffffffffffffffffffffffffff1663c1733f686040518163ffffffff1660e01b8152600401620007e290620016cd565b602060405180830381865afa15801562000800573d6000803e3d6000fd5b505050506040513d601f19601f82011682018060405250810190620008269190620015d9565b73ffffffffffffffffffffffffffffffffffffffff1673ffffffffffffffffffffffffffffffffffffffff16815260200190815260200160002060006101000a81548173ffffffffffffffffffffffffffffffffffffffff021916908373ffffffffffffffffffffffffffffffffffffffff1602179055507314866185b1962b63c3ea9e03bc1da838bab34c19604051620008c190620010d3565b620008cd919062001522565b604051809103906000f080158015620008ea573d6000803e3d6000fd5b50600160008060009054906101000a900473ffffffffffffffffffffffffffffffffffffffff1673ffffffffffffffffffffffffffffffffffffffff1663c1733f686040518163ffffffff1660e01b815260040162000949906200173f565b602060405180830381865afa15801562000967573d6000803e3d6000fd5b505050506040513d601f19601f820116820180604052508101906200098d9190620015d9565b73ffffffffffffffffffffffffffffffffffffffff1673ffffffffffffffffffffffffffffffffffffffff16815260200190815260200160002060006101000a81548173ffffffffffffffffffffffffffffffffffffffff021916908373ffffffffffffffffffffffffffffffffffffffff1602179055506008600260008060009054906101000a900473ffffffffffffffffffffffffffffffffffffffff1673ffffffffffffffffffffffffffffffffffffffff1663c1733f686040518163ffffffff1660e01b815260040162000a6590620015a0565b602060405180830381865afa15801562000a83573d6000803e3d6000fd5b505050506040513d601f19601f8201168201806040525081019062000aa99190620015d9565b73ffffffffffffffffffffffffffffffffffffffff1673ffffffffffffffffffffffffffffffffffffffff168152602001908152602001600020819055506012600260008060009054906101000a900473ffffffffffffffffffffffffffffffffffffffff1673ffffffffffffffffffffffffffffffffffffffff1663c1733f686040518163ffffffff1660e01b815260040162000b47906200165b565b602060405180830381865afa15801562000b65573d6000803e3d6000fd5b505050506040513d601f19601f8201168201806040525081019062000b8b9190620015d9565b73ffffffffffffffffffffffffffffffffffffffff1673ffffffffffffffffffffffffffffffffffffffff168152602001908152602001600020819055506012600260008060009054906101000a900473ffffffffffffffffffffffffffffffffffffffff1673ffffffffffffffffffffffffffffffffffffffff1663c1733f686040518163ffffffff1660e01b815260040162000c2990620016cd565b602060405180830381865afa15801562000c47573d6000803e3d6000fd5b505050506040513d601f19601f8201168201806040525081019062000c6d9190620015d9565b73ffffffffffffffffffffffffffffffffffffffff1673ffffffffffffffffffffffffffffffffffffffff168152602001908152602001600020819055506012600260008060009054906101000a900473ffffffffffffffffffffffffffffffffffffffff1673ffffffffffffffffffffffffffffffffffffffff1663c1733f686040518163ffffffff1660e01b815260040162000d0b906200173f565b602060405180830381865afa15801562000d29573d6000803e3d6000fd5b505050506040513d601f19601f8201168201806040525081019062000d4f9190620015d9565b73ffffffffffffffffffffffffffffffffffffffff1673ffffffffffffffffffffffffffffffffffffffff16815260200190815260200160002081905550565b600073ffffffffffffffffffffffffffffffffffffffff168373ffffffffffffffffffffffffffffffffffffffff160362000e01576040517f08c379a000000000000000000000000000000000000000000000000000000000815260040162000df890620017d7565b60405180910390fd5b801562000f0e578173ffffffffffffffffffffffffffffffffffffffff168373ffffffffffffffffffffffffffffffffffffffff161462000e79576040517f08c379a000000000000000000000000000000000000000000000000000000000815260040162000e70906200186f565b60405180910390fd5b600360008373ffffffffffffffffffffffffffffffffffffffff1673ffffffffffffffffffffffffffffffffffffffff16815260200190815260200160002060009054906101000a900460ff1662000f08576040517f08c379a000000000000000000000000000000000000000000000000000000000815260040162000eff9062001907565b60405180910390fd5b6200109e565b8173ffffffffffffffffffffffffffffffffffffffff168373ffffffffffffffffffffffffffffffffffffffff160362000f7f576040517f08c379a000000000000000000000000000000000000000000000000000000000815260040162000f76906200199f565b60405180910390fd5b600460008473ffffffffffffffffffffffffffffffffffffffff1673ffffffffffffffffffffffffffffffffffffffff16815260200190815260200160002060009054906101000a900460ff166200100e576040517f08c379a0000000000000000000000000000000000000000000000000000000008152600401620010059062001a37565b60405180910390fd5b600360008373ffffffffffffffffffffffffffffffffffffffff1673ffffffffffffffffffffffffffffffffffffffff16815260200190815260200160002060009054906101000a900460ff166200109d576040517f08c379a0000000000000000000000000000000000000000000000000000000008152600401620010949062001acf565b60405180910390fd5b5b505050565b60008183620010b3919062001af1565b905092915050565b60008183620010cb919062001b6b565b905092915050565b610cc78062001ba483390190565b600080fd5b600073ffffffffffffffffffffffffffffffffffffffff82169050919050565b60006200111382620010e6565b9050919050565b620011258162001106565b81146200113157600080fd5b50565b60008135905062001145816200111a565b92915050565b600060208284031215620011645762001163620010e1565b5b6000620011748482850162001134565b91505092915050565b60008115159050919050565b62001194816200117d565b82525050565b6000602082019050620011b1600083018462001189565b92915050565b6000819050919050565b620011cc81620011b7565b82525050565b6000602082019050620011e96000830184620011c1565b92915050565b620011fa81620011b7565b81146200120657600080fd5b50565b6000813590506200121a81620011ef565b92915050565b600080604083850312156200123a5762001239620010e1565b5b60006200124a8582860162001134565b92505060206200125d8582860162001209565b9150509250929050565b62001272816200117d565b81146200127e57600080fd5b50565b600081359050620012928162001267565b92915050565b600080600060608486031215620012b457620012b3620010e1565b5b6000620012c48682870162001134565b9350506020620012d78682870162001134565b9250506040620012ea8682870162001281565b9150509250925092565b6000815190506200130581620011ef565b92915050565b600060208284031215620013245762001323620010e1565b5b60006200133484828501620012f4565b91505092915050565b7f4e487b7100000000000000000000000000000000000000000000000000000000600052601160045260246000fd5b60008160011c9050919050565b6000808291508390505b6001851115620013cb57808604811115620013a357620013a26200133d565b5b6001851615620013b35780820291505b8081029050620013c3856200136c565b945062001383565b94509492505050565b600082620013e65760019050620014b9565b81620013f65760009050620014b9565b81600181146200140f57600281146200141a5762001450565b6001915050620014b9565b60ff8411156200142f576200142e6200133d565b5b8360020a9150848211156200144957620014486200133d565b5b50620014b9565b5060208310610133831016604e8410600b84101617156200148a5782820a9050838111156200148457620014836200133d565b5b620014b9565b62001499848484600162001379565b92509050818404811115620014b357620014b26200133d565b5b81810290505b9392505050565b6000620014cd82620011b7565b9150620014da83620011b7565b9250620015097fffffffffffffffffffffffffffffffffffffffffffffffffffffffffffffffff8484620013d4565b905092915050565b6200151c8162001106565b82525050565b600060208201905062001539600083018462001511565b92915050565b600082825260208201905092915050565b7f4642544300000000000000000000000000000000000000000000000000000000600082015250565b6000620015886004836200153f565b9150620015958262001550565b602082019050919050565b60006020820190508181036000830152620015bb8162001579565b9050919050565b600081519050620015d3816200111a565b92915050565b600060208284031215620015f257620015f1620010e1565b5b60006200160284828501620015c2565b91505092915050565b7f4645544800000000000000000000000000000000000000000000000000000000600082015250565b6000620016436004836200153f565b915062001650826200160b565b602082019050919050565b60006020820190508181036000830152620016768162001634565b9050919050565b7f4644414900000000000000000000000000000000000000000000000000000000600082015250565b6000620016b56004836200153f565b9150620016c2826200167d565b602082019050919050565b60006020820190508181036000830152620016e881620016a6565b9050919050565b7f464c494e4b000000000000000000000000000000000000000000000000000000600082015250565b6000620017276005836200153f565b91506200173482620016ef565b602082019050919050565b600060208201905081810360008301526200175a8162001718565b9050919050565b7f5f76616c6964496e637265617365506f736974696f6e546f6b656e3a205f636f60008201527f6c6c61746572616c546f6b656e203d2030000000000000000000000000000000602082015250565b6000620017bf6031836200153f565b9150620017cc8262001761565b604082019050919050565b60006020820190508181036000830152620017f281620017b0565b9050919050565b7f5f76616c6964496e637265617365506f736974696f6e546f6b656e3a205f636f60008201527f6c6c61746572616c546f6b656e20213d205f696e646578546f6b656e00000000602082015250565b600062001857603c836200153f565b91506200186482620017f9565b604082019050919050565b600060208201905081810360008301526200188a8162001848565b9050919050565b7f5f76616c6964496e637265617365506f736974696f6e546f6b656e3a20696e6460008201527f6578206973206e6f742077686974656c69737420746f6b656e00000000000000602082015250565b6000620018ef6039836200153f565b9150620018fc8262001891565b604082019050919050565b600060208201905081810360008301526200192281620018e0565b9050919050565b7f5f76616c6964496e637265617365506f736974696f6e546f6b656e3a205f636f60008201527f6c6c61746572616c546f6b656e203d3d205f696e646578546f6b656e00000000602082015250565b600062001987603c836200153f565b9150620019948262001929565b604082019050919050565b60006020820190508181036000830152620019ba8162001978565b9050919050565b7f5f76616c6964496e637265617365506f736974696f6e546f6b656e3a206e6f7460008201527f20737461626c6520746f6b656e00000000000000000000000000000000000000602082015250565b600062001a1f602d836200153f565b915062001a2c82620019c1565b604082019050919050565b6000602082019050818103600083015262001a528162001a10565b9050919050565b7f5f76616c6964496e637265617365506f736974696f6e546f6b656e3a206e6f7460008201527f2077686974656c69737420746f6b656e00000000000000000000000000000000602082015250565b600062001ab76030836200153f565b915062001ac48262001a59565b604082019050919050565b6000602082019050818103600083015262001aea8162001aa8565b9050919050565b600062001afe82620011b7565b915062001b0b83620011b7565b925082820262001b1b81620011b7565b9150828204841483151762001b355762001b346200133d565b5b5092915050565b7f4e487b7100000000000000000000000000000000000000000000000000000000600052601260045260246000fd5b600062001b7882620011b7565b915062001b8583620011b7565b92508262001b985762001b9762001b3c565b5b82820490509291505056fe6080604052610e10600455601e60055534801561001b57600080fd5b50604051610cc7380380610cc7833981810160405281019061003d9190610145565b806000806101000a81548173ffffffffffffffffffffffffffffffffffffffff021916908373ffffffffffffffffffffffffffffffffffffffff160217905550426003819055506001600760003373ffffffffffffffffffffffffffffffffffffffff1673ffffffffffffffffffffffffffffffffffffffff16815260200190815260200160002060006101000a81548160ff02191690831515021790555050610172565b600080fd5b600073ffffffffffffffffffffffffffffffffffffffff82169050919050565b6000610112826100e7565b9050919050565b61012281610107565b811461012d57600080fd5b50565b60008151905061013f81610119565b92915050565b60006020828403121561015b5761015a6100e2565b5b600061016984828501610130565b91505092915050565b610b46806101816000396000f3fe608060405234801561001057600080fd5b50600436106100a95760003560e01c80638cd221c9116100715780638cd221c91461015457806395082d251461017257806396237c0214610190578063a8c954d8146101ae578063f57ee77b146101cc578063fd2c80ae146101ea576100a9565b806314bcec9f146100ae57806324d7806c146100cc5780634c295ca3146100fc578063673a7e281461012c57806385bb7d6914610136575b600080fd5b6100b6610208565b6040516100c39190610530565b60405180910390f35b6100e660048036038101906100e191906105ae565b61020e565b6040516100f391906105f6565b60405180910390f35b61011660048036038101906101119190610653565b61022e565b6040516101239190610699565b60405180910390f35b610134610246565b005b61013e610463565b60405161014b9190610699565b60405180910390f35b61015c610469565b60405161016991906106c3565b60405180910390f35b61017a610485565b6040516101879190610530565b60405180910390f35b61019861048b565b6040516101a59190610530565b60405180910390f35b6101b66104b5565b6040516101c391906105f6565b60405180910390f35b6101d46104cf565b6040516101e19190610530565b60405180910390f35b6101f26104fb565b6040516101ff9190610530565b60405180910390f35b60035481565b60076020528060005260406000206000915054906101000a900460ff1681565b60066020528060005260406000206000915090505481565b600760003373ffffffffffffffffffffffffffffffffffffffff1673ffffffffffffffffffffffffffffffffffffffff16815260200190815260200160002060009054906101000a900460ff166102d2576040517f08c379a00000000000000000000000000000000000000000000000000000000081526004016102c99061073b565b60405180910390fd5b60008060008054906101000a900473ffffffffffffffffffffffffffffffffffffffff1673ffffffffffffffffffffffffffffffffffffffff1663feaf968c6040518163ffffffff1660e01b815260040160a060405180830381865afa158015610340573d6000803e3d6000fd5b505050506040513d601f19601f8201168201806040525081019061036491906107c8565b50935050925050600081116103ae576040517f08c379a00000000000000000000000000000000000000000000000000000000081526004016103a59061088f565b60405180910390fd5b600154821461045f57816001819055506001600260009054906101000a900469ffffffffffffffffffff166103e391906108de565b600260006101000a81548169ffffffffffffffffffff021916908369ffffffffffffffffffff160217905550806003819055508160066000600260009054906101000a900469ffffffffffffffffffff1669ffffffffffffffffffff1669ffffffffffffffffffff168152602001908152602001600020819055505b5050565b60015481565b600260009054906101000a900469ffffffffffffffffffff1681565b60055481565b60006104b0600554600a61049f9190610a4f565b60015461050190919063ffffffff16565b905090565b60006004546003546104c79190610a9a565b421015905090565b6000600260009054906101000a900469ffffffffffffffffffff1669ffffffffffffffffffff16905090565b60045481565b6000818361050f9190610ace565b905092915050565b6000819050919050565b61052a81610517565b82525050565b60006020820190506105456000830184610521565b92915050565b600080fd5b600073ffffffffffffffffffffffffffffffffffffffff82169050919050565b600061057b82610550565b9050919050565b61058b81610570565b811461059657600080fd5b50565b6000813590506105a881610582565b92915050565b6000602082840312156105c4576105c361054b565b5b60006105d284828501610599565b91505092915050565b60008115159050919050565b6105f0816105db565b82525050565b600060208201905061060b60008301846105e7565b92915050565b600069ffffffffffffffffffff82169050919050565b61063081610611565b811461063b57600080fd5b50565b60008135905061064d81610627565b92915050565b6000602082840312156106695761066861054b565b5b60006106778482850161063e565b91505092915050565b6000819050919050565b61069381610680565b82525050565b60006020820190506106ae600083018461068a565b92915050565b6106bd81610611565b82525050565b60006020820190506106d860008301846106b4565b92915050565b600082825260208201905092915050565b7f5072696365466565643a20666f7262696464656e000000000000000000000000600082015250565b60006107256014836106de565b9150610730826106ef565b602082019050919050565b6000602082019050818103600083015261075481610718565b9050919050565b60008151905061076a81610627565b92915050565b61077981610680565b811461078457600080fd5b50565b60008151905061079681610770565b92915050565b6107a581610517565b81146107b057600080fd5b50565b6000815190506107c28161079c565b92915050565b600080600080600060a086880312156107e4576107e361054b565b5b60006107f28882890161075b565b955050602061080388828901610787565b9450506040610814888289016107b3565b9350506060610825888289016107b3565b92505060806108368882890161075b565b9150509295509295909350565b7f526f756e64206e6f7420636f6d706c6574650000000000000000000000000000600082015250565b60006108796012836106de565b915061088482610843565b602082019050919050565b600060208201905081810360008301526108a88161086c565b9050919050565b7f4e487b7100000000000000000000000000000000000000000000000000000000600052601160045260246000fd5b60006108e982610611565b91506108f483610611565b9250828201905069ffffffffffffffffffff811115610916576109156108af565b5b92915050565b60008160011c9050919050565b6000808291508390505b60018511156109735780860481111561094f5761094e6108af565b5b600185161561095e5780820291505b808102905061096c8561091c565b9450610933565b94509492505050565b60008261098c5760019050610a48565b8161099a5760009050610a48565b81600181146109b057600281146109ba576109e9565b6001915050610a48565b60ff8411156109cc576109cb6108af565b5b8360020a9150848211156109e3576109e26108af565b5b50610a48565b5060208310610133831016604e8410600b8410161715610a1e5782820a905083811115610a1957610a186108af565b5b610a48565b610a2b8484846001610929565b92509050818404811115610a4257610a416108af565b5b81810290505b9392505050565b6000610a5a82610517565b9150610a6583610517565b9250610a927fffffffffffffffffffffffffffffffffffffffffffffffffffffffffffffffff848461097c565b905092915050565b6000610aa582610517565b9150610ab083610517565b9250828201905080821115610ac857610ac76108af565b5b92915050565b6000610ad982610517565b9150610ae483610517565b9250828202610af281610517565b91508282048414831517610b0957610b086108af565b5b509291505056fea2646970667358221220c267d73b6cf86e2374cf72690458b289995639251109f896f73d6b7680c7f75964736f6c63430008110033a2646970667358221220cfca05daa012ff8369cb07804a5529b070b5c9a7792da7176073e98c69528a6964736f6c63430008110033",
  "linkReferences": {},
  "deployedLinkReferences": {}
}