{
  "_format": "hh-sol-artifact-1",
  "contractName": "Vault",
  "sourceName": "contracts/core/Vault.sol",
  "abi": [
    {
      "inputs": [],
      "stateMutability": "nonpayable",
      "type": "constructor"
    },
    {
      "anonymous": false,
      "inputs": [
        {
          "indexed": false,
          "internalType": "address",
          "name": "token",
          "type": "address"
        },
        {
          "indexed": false,
          "internalType": "uint256",
          "name": "amount",
          "type": "uint256"
        }
      ],
      "name": "DecreaseReservedAmount",
      "type": "event"
    },
    {
      "anonymous": false,
      "inputs": [
        {
          "indexed": false,
          "internalType": "address",
          "name": "token",
          "type": "address"
        },
        {
          "indexed": false,
          "internalType": "uint256",
          "name": "amount",
          "type": "uint256"
        }
      ],
      "name": "IncreaseReservedAmount",
      "type": "event"
    },
    {
      "inputs": [
        {
          "internalType": "address",
          "name": "_account",
          "type": "address"
        },
        {
          "internalType": "address",
          "name": "_collateralToken",
          "type": "address"
        },
        {
          "internalType": "address",
          "name": "_indexToken",
          "type": "address"
        },
        {
          "internalType": "uint256",
          "name": "_collateralDelta",
          "type": "uint256"
        },
        {
          "internalType": "uint256",
          "name": "_sizeDelta",
          "type": "uint256"
        },
        {
          "internalType": "bool",
          "name": "_isLong",
          "type": "bool"
        },
        {
          "internalType": "address",
          "name": "_receiver",
          "type": "address"
        }
      ],
      "name": "decreasePosition",
      "outputs": [],
      "stateMutability": "nonpayable",
      "type": "function"
    },
    {
      "inputs": [
        {
          "internalType": "address",
          "name": "_token",
          "type": "address"
        },
        {
          "internalType": "uint256",
          "name": "_size",
          "type": "uint256"
        },
        {
          "internalType": "uint256",
          "name": "_averagePrice",
          "type": "uint256"
        },
        {
          "internalType": "bool",
          "name": "_isLong",
          "type": "bool"
        }
      ],
      "name": "getDelta",
      "outputs": [
        {
          "internalType": "bool",
          "name": "",
          "type": "bool"
        },
        {
          "internalType": "uint256",
          "name": "",
          "type": "uint256"
        }
      ],
      "stateMutability": "view",
      "type": "function"
    },
    {
      "inputs": [
        {
          "internalType": "address",
          "name": "_token",
          "type": "address"
        },
        {
          "internalType": "uint256",
          "name": "_size",
          "type": "uint256"
        },
        {
          "internalType": "uint256",
          "name": "_averagePrice",
          "type": "uint256"
        },
        {
          "internalType": "bool",
          "name": "_isLong",
          "type": "bool"
        },
        {
          "internalType": "uint256",
          "name": "_nextPrice",
          "type": "uint256"
        },
        {
          "internalType": "uint256",
          "name": "_sizeDelta",
          "type": "uint256"
        }
      ],
      "name": "getNextAveragePrice",
      "outputs": [
        {
          "internalType": "uint256",
          "name": "",
          "type": "uint256"
        }
      ],
      "stateMutability": "view",
      "type": "function"
    },
    {
      "inputs": [
        {
          "internalType": "address",
          "name": "_account",
          "type": "address"
        },
        {
          "internalType": "address",
          "name": "_collateralToken",
          "type": "address"
        },
        {
          "internalType": "address",
          "name": "_indexToken",
          "type": "address"
        },
        {
          "internalType": "bool",
          "name": "_isLong",
          "type": "bool"
        }
      ],
      "name": "getPositionKey",
      "outputs": [
        {
          "internalType": "bytes32",
          "name": "",
          "type": "bytes32"
        }
      ],
      "stateMutability": "pure",
      "type": "function"
    },
    {
      "inputs": [
        {
          "internalType": "address",
          "name": "_account",
          "type": "address"
        },
        {
          "internalType": "address",
          "name": "_collateralToken",
          "type": "address"
        },
        {
          "internalType": "address",
          "name": "_indexToken",
          "type": "address"
        },
        {
          "internalType": "uint256",
          "name": "_sizeDelta",
          "type": "uint256"
        },
        {
          "internalType": "bool",
          "name": "_isLong",
          "type": "bool"
        }
      ],
      "name": "increasePosition",
      "outputs": [],
      "stateMutability": "nonpayable",
      "type": "function"
    },
    {
      "inputs": [
        {
          "internalType": "address",
          "name": "_tokenUtils",
          "type": "address"
        },
        {
          "internalType": "address",
          "name": "_feeManager",
          "type": "address"
        }
      ],
      "name": "initialization",
      "outputs": [],
      "stateMutability": "nonpayable",
      "type": "function"
    },
    {
      "inputs": [
        {
          "internalType": "address",
          "name": "",
          "type": "address"
        }
      ],
      "name": "isManager",
      "outputs": [
        {
          "internalType": "bool",
          "name": "",
          "type": "bool"
        }
      ],
      "stateMutability": "view",
      "type": "function"
    },
    {
      "inputs": [
        {
          "internalType": "address",
          "name": "_account",
          "type": "address"
        },
        {
          "internalType": "address",
          "name": "_collateralToken",
          "type": "address"
        },
        {
          "internalType": "address",
          "name": "_indexToken",
          "type": "address"
        },
        {
          "internalType": "bool",
          "name": "_isLong",
          "type": "bool"
        },
        {
          "internalType": "address",
          "name": "_feeReceiver",
          "type": "address"
        }
      ],
      "name": "liquidatePosition",
      "outputs": [],
      "stateMutability": "nonpayable",
      "type": "function"
    },
    {
      "inputs": [
        {
          "internalType": "address",
          "name": "",
          "type": "address"
        }
      ],
      "name": "poolAmounts",
      "outputs": [
        {
          "internalType": "uint256",
          "name": "",
          "type": "uint256"
        }
      ],
      "stateMutability": "view",
      "type": "function"
    },
    {
      "inputs": [
        {
          "internalType": "bytes32",
          "name": "",
          "type": "bytes32"
        }
      ],
      "name": "positions",
      "outputs": [
        {
          "internalType": "uint256",
          "name": "size",
          "type": "uint256"
        },
        {
          "internalType": "uint256",
          "name": "collateral",
          "type": "uint256"
        },
        {
          "internalType": "uint256",
          "name": "averagePrice",
          "type": "uint256"
        },
        {
          "internalType": "uint256",
          "name": "entryFundingRate",
          "type": "uint256"
        },
        {
          "internalType": "uint256",
          "name": "reserveAmount",
          "type": "uint256"
        },
        {
          "internalType": "int256",
          "name": "realisedPnl",
          "type": "int256"
        },
        {
          "internalType": "uint256",
          "name": "lastIncreasedTime",
          "type": "uint256"
        }
      ],
      "stateMutability": "view",
      "type": "function"
    },
    {
      "inputs": [
        {
          "internalType": "address",
          "name": "",
          "type": "address"
        }
      ],
      "name": "reservedAmounts",
      "outputs": [
        {
          "internalType": "uint256",
          "name": "",
          "type": "uint256"
        }
      ],
      "stateMutability": "view",
      "type": "function"
    },
    {
      "inputs": [
        {
          "internalType": "address",
          "name": "_manager",
          "type": "address"
        }
      ],
      "name": "setManager",
      "outputs": [],
      "stateMutability": "nonpayable",
      "type": "function"
    },
    {
      "inputs": [
        {
          "internalType": "address",
          "name": "_tokenIn",
          "type": "address"
        },
        {
          "internalType": "address",
          "name": "_tokenOut",
          "type": "address"
        },
        {
          "internalType": "address",
          "name": "_receiver",
          "type": "address"
        }
      ],
      "name": "swap",
      "outputs": [],
      "stateMutability": "nonpayable",
      "type": "function"
    },
    {
      "inputs": [
        {
          "internalType": "address",
          "name": "",
          "type": "address"
        }
      ],
      "name": "tokenBalances",
      "outputs": [
        {
          "internalType": "uint256",
          "name": "",
          "type": "uint256"
        }
      ],
      "stateMutability": "view",
      "type": "function"
    }
  ],
  "bytecode": "0x6080604052601460015534801561001557600080fd5b50600160008190555033600260006101000a81548173ffffffffffffffffffffffffffffffffffffffff021916908373ffffffffffffffffffffffffffffffffffffffff1602179055506001600360003373ffffffffffffffffffffffffffffffffffffffff1673ffffffffffffffffffffffffffffffffffffffff16815260200190815260200160002060006101000a81548160ff021916908315150217905550612f48806100c66000396000f3fe608060405234801561001057600080fd5b50600436106100ea5760003560e01c806382a084901161008c578063c3c7b9e911610066578063c3c7b9e914610286578063d0ebdbe7146102b6578063de2ea948146102d2578063f3ae2415146102ee576100ea565b806382a084901461021e578063933162121461023a578063a9af372d14610256576100ea565b8063523fba7f116100c8578063523fba7f1461017157806352f55eed146101a15780636a7bc8b4146101d15780637415aa8a14610202576100ea565b80632d4b0576146100ef57806348d91abf1461011f578063514ea4bf1461013b575b600080fd5b61010960048036038101906101049190611f60565b61031e565b6040516101169190611fe0565b60405180910390f35b61013960048036038101906101349190612031565b610357565b005b610155600480360381019061015091906120d8565b6109f4565b604051610168979695949392919061212d565b60405180910390f35b61018b6004803603810190610186919061219c565b610a36565b60405161019891906121c9565b60405180910390f35b6101bb60048036038101906101b6919061219c565b610a4e565b6040516101c891906121c9565b60405180910390f35b6101eb60048036038101906101e691906121e4565b610a66565b6040516101f992919061225a565b60405180910390f35b61021c60048036038101906102179190612283565b610bd7565b005b610238600480360381019061023391906122c3565b610c5d565b005b610254600480360381019061024f9190612365565b611194565b005b610270600480360381019061026b91906123b8565b6111ee565b60405161027d91906121c9565b60405180910390f35b6102a0600480360381019061029b919061219c565b6112c3565b6040516102ad91906121c9565b60405180910390f35b6102d060048036038101906102cb919061219c565b6112db565b005b6102ec60048036038101906102e79190612445565b6113c6565b005b6103086004803603810190610303919061219c565b611422565b60405161031591906124c0565b60405180910390f35b600084848484604051602001610337949392919061256b565b604051602081830303815290604052805190602001209050949350505050565b60026000540361039c576040517f08c379a000000000000000000000000000000000000000000000000000000000815260040161039390612616565b60405180910390fd5b6002600081905550600073ffffffffffffffffffffffffffffffffffffffff168573ffffffffffffffffffffffffffffffffffffffff1603610413576040517f08c379a000000000000000000000000000000000000000000000000000000000815260040161040a90612682565b60405180910390fd5b600460009054906101000a900473ffffffffffffffffffffffffffffffffffffffff1673ffffffffffffffffffffffffffffffffffffffff1663db7524798585846040518463ffffffff1660e01b8152600401610472939291906126b1565b60006040518083038186803b15801561048a57600080fd5b505afa15801561049e573d6000803e3d6000fd5b5050505060006104b08686868561031e565b905060006009600083815260200190815260200160002090506000600460009054906101000a900473ffffffffffffffffffffffffffffffffffffffff1673ffffffffffffffffffffffffffffffffffffffff166341976e09876040518263ffffffff1660e01b815260040161052691906126e8565b602060405180830381865afa158015610543573d6000803e3d6000fd5b505050506040513d601f19601f820116820180604052508101906105679190612718565b9050600082600001540361057f578082600201819055505b600082600001541180156105935750600085115b156105b7576105ae868360000154846002015487858a6111ee565b82600201819055505b600080600560009054906101000a900473ffffffffffffffffffffffffffffffffffffffff1673ffffffffffffffffffffffffffffffffffffffff166317bbf25c886040518263ffffffff1660e01b815260040161061591906121c9565b602060405180830381865afa158015610632573d6000803e3d6000fd5b505050506040513d601f19601f820116820180604052508101906106569190612718565b905061066b818361144290919063ffffffff16565b506000600460009054906101000a900473ffffffffffffffffffffffffffffffffffffffff1673ffffffffffffffffffffffffffffffffffffffff166368ce13d68b856040518363ffffffff1660e01b81526004016106cb929190612745565b602060405180830381865afa1580156106e8573d6000803e3d6000fd5b505050506040513d601f19601f8201168201806040525081019061070c9190612718565b9050600560009054906101000a900473ffffffffffffffffffffffffffffffffffffffff1673ffffffffffffffffffffffffffffffffffffffff16634ef697508b836040518363ffffffff1660e01b815260040161076b929190612745565b600060405180830381600087803b15801561078557600080fd5b505af1158015610799573d6000803e3d6000fd5b5050505060006107a88b611458565b90506000600460009054906101000a900473ffffffffffffffffffffffffffffffffffffffff1673ffffffffffffffffffffffffffffffffffffffff1663bd1b12988d846040518363ffffffff1660e01b8152600401610809929190612745565b602060405180830381865afa158015610826573d6000803e3d6000fd5b505050506040513d601f19601f8201168201806040525081019061084a9190612718565b905061086381886001015461144290919063ffffffff16565b876001018190555061088285886001015461157b90919063ffffffff16565b87600101819055506108a18a886000015461144290919063ffffffff16565b876000018190555086600001546108c7600154896001015461159190919063ffffffff16565b1015610908576040517f08c379a00000000000000000000000000000000000000000000000000000000081526004016108ff906127e0565b60405180910390fd5b6000600460009054906101000a900473ffffffffffffffffffffffffffffffffffffffff1673ffffffffffffffffffffffffffffffffffffffff166368ce13d68e8d6040518363ffffffff1660e01b8152600401610967929190612745565b602060405180830381865afa158015610984573d6000803e3d6000fd5b505050506040513d601f19601f820116820180604052508101906109a89190612718565b90506109c181896004015461144290919063ffffffff16565b88600401819055504288600601819055506109dc8d826115a7565b50505050505050505060016000819055505050505050565b60096020528060005260406000206000915090508060000154908060010154908060020154908060030154908060040154908060050154908060060154905087565b60066020528060005260406000206000915090505481565b60076020528060005260406000206000915090505481565b60008060008411610aac576040517f08c379a0000000000000000000000000000000000000000000000000000000008152600401610aa39061284c565b60405180910390fd5b6000600460009054906101000a900473ffffffffffffffffffffffffffffffffffffffff1673ffffffffffffffffffffffffffffffffffffffff166341976e09886040518263ffffffff1660e01b8152600401610b0991906126e8565b602060405180830381865afa158015610b26573d6000803e3d6000fd5b505050506040513d601f19601f82011682018060405250810190610b4a9190612718565b90506000818611610b6d57610b68868361157b90919063ffffffff16565b610b81565b610b80828761157b90919063ffffffff16565b5b90506000610baa87610b9c848b61159190919063ffffffff16565b61173a90919063ffffffff16565b905060008615610bbe578784119050610bc4565b83881190505b8082955095505050505094509492505050565b81600460006101000a81548173ffffffffffffffffffffffffffffffffffffffff021916908373ffffffffffffffffffffffffffffffffffffffff16021790555080600560006101000a81548173ffffffffffffffffffffffffffffffffffffffff021916908373ffffffffffffffffffffffffffffffffffffffff1602179055505050565b600260005403610ca2576040517f08c379a0000000000000000000000000000000000000000000000000000000008152600401610c9990612616565b60405180910390fd5b6002600081905550600073ffffffffffffffffffffffffffffffffffffffff168773ffffffffffffffffffffffffffffffffffffffff1603610d19576040517f08c379a0000000000000000000000000000000000000000000000000000000008152600401610d10906128b8565b60405180910390fd5b600460009054906101000a900473ffffffffffffffffffffffffffffffffffffffff1673ffffffffffffffffffffffffffffffffffffffff1663db7524798787856040518463ffffffff1660e01b8152600401610d78939291906126b1565b60006040518083038186803b158015610d9057600080fd5b505afa158015610da4573d6000803e3d6000fd5b505050506000610db68888888661031e565b9050600060096000838152602001908152602001600020905060008160000154905060008111610e1b576040517f08c379a0000000000000000000000000000000000000000000000000000000008152600401610e1290612924565b60405180910390fd5b85811015610e5e576040517f08c379a0000000000000000000000000000000000000000000000000000000008152600401610e55906129b6565b60405180910390fd5b8682600101541015610ea5576040517f08c379a0000000000000000000000000000000000000000000000000000000008152600401610e9c90612a48565b60405180910390fd5b6000610ed082610ec289866004015461159190919063ffffffff16565b61173a90919063ffffffff16565b9050610ee981846004015461157b90919063ffffffff16565b8360040181905550610efb8a82611750565b506000610f0c8b8b8b8b8b8b611859565b9050610f21878361157b90919063ffffffff16565b83600001819055508260000154610f47600154856001015461159190919063ffffffff16565b1015610f88576040517f08c379a0000000000000000000000000000000000000000000000000000000008152600401610f7f906127e0565b60405180910390fd5b60008082111561104b576000600460009054906101000a900473ffffffffffffffffffffffffffffffffffffffff1673ffffffffffffffffffffffffffffffffffffffff166368ce13d68d856040518363ffffffff1660e01b8152600401610ff1929190612745565b602060405180830381865afa15801561100e573d6000803e3d6000fd5b505050506040513d601f19601f820116820180604052508101906110329190612718565b9050611047818361144290919063ffffffff16565b9150505b8783111561111a576000891115611115576000600460009054906101000a900473ffffffffffffffffffffffffffffffffffffffff1673ffffffffffffffffffffffffffffffffffffffff166368ce13d68d8c6040518363ffffffff1660e01b81526004016110bb929190612745565b602060405180830381865afa1580156110d8573d6000803e3d6000fd5b505050506040513d601f19601f820116820180604052508101906110fc9190612718565b9050611111818361144290919063ffffffff16565b9150505b611169565b6009600086815260200190815260200160002060008082016000905560018201600090556002820160009055600382016000905560048201600090556005820160009055600682016000905550505b600081111561117e5761117d8b8288611d2f565b5b5050505050600160008190555050505050505050565b6002600054036111d9576040517f08c379a00000000000000000000000000000000000000000000000000000000081526004016111d090612616565b60405180910390fd5b60026000819055506001600081905550505050565b60008060006111ff89898989610a66565b915091506000611218858a61144290919063ffffffff16565b90506000871561125a578361123f5761123a838361157b90919063ffffffff16565b611253565b611252838361144290919063ffffffff16565b5b905061128e565b8361127757611272838361144290919063ffffffff16565b61128b565b61128a838361157b90919063ffffffff16565b5b90505b6112b3816112a5848a61159190919063ffffffff16565b61173a90919063ffffffff16565b9450505050509695505050505050565b60086020528060005260406000206000915090505481565b600260009054906101000a900473ffffffffffffffffffffffffffffffffffffffff1673ffffffffffffffffffffffffffffffffffffffff163373ffffffffffffffffffffffffffffffffffffffff161461136b576040517f08c379a000000000000000000000000000000000000000000000000000000000815260040161136290612ab4565b60405180910390fd5b6001600360008373ffffffffffffffffffffffffffffffffffffffff1673ffffffffffffffffffffffffffffffffffffffff16815260200190815260200160002060006101000a81548160ff02191690831515021790555050565b60026000540361140b576040517f08c379a000000000000000000000000000000000000000000000000000000000815260040161140290612616565b60405180910390fd5b600260008190555060016000819055505050505050565b60036020528060005260406000206000915054906101000a900460ff1681565b600081836114509190612b03565b905092915050565b600080600660008473ffffffffffffffffffffffffffffffffffffffff1673ffffffffffffffffffffffffffffffffffffffff16815260200190815260200160002054905060008373ffffffffffffffffffffffffffffffffffffffff166370a08231306040518263ffffffff1660e01b81526004016114d891906126e8565b602060405180830381865afa1580156114f5573d6000803e3d6000fd5b505050506040513d601f19601f820116820180604052508101906115199190612718565b905080600660008673ffffffffffffffffffffffffffffffffffffffff1673ffffffffffffffffffffffffffffffffffffffff16815260200190815260200160002081905550611572828261157b90919063ffffffff16565b92505050919050565b600081836115899190612b37565b905092915050565b6000818361159f9190612b6b565b905092915050565b6115f981600860008573ffffffffffffffffffffffffffffffffffffffff1673ffffffffffffffffffffffffffffffffffffffff1681526020019081526020016000205461144290919063ffffffff16565b600860008473ffffffffffffffffffffffffffffffffffffffff1673ffffffffffffffffffffffffffffffffffffffff16815260200190815260200160002081905550600760008373ffffffffffffffffffffffffffffffffffffffff1673ffffffffffffffffffffffffffffffffffffffff16815260200190815260200160002054600860008473ffffffffffffffffffffffffffffffffffffffff1673ffffffffffffffffffffffffffffffffffffffff1681526020019081526020016000205411156116fd576040517f08c379a00000000000000000000000000000000000000000000000000000000081526004016116f490612bf9565b60405180910390fd5b7faa5649d82f5462be9d19b0f2b31a59b2259950a6076550bac9f3a1c07db9f66d828260405161172e929190612745565b60405180910390a15050565b600081836117489190612c48565b905092915050565b6117d9816040518060400160405280601b81526020017f5661756c743a20696e73756666696369656e7420726573657276650000000000815250600860008673ffffffffffffffffffffffffffffffffffffffff1673ffffffffffffffffffffffffffffffffffffffff16815260200190815260200160002054611e709092919063ffffffff16565b600860008473ffffffffffffffffffffffffffffffffffffffff1673ffffffffffffffffffffffffffffffffffffffff168152602001908152602001600020819055507f533cb5ed32be6a90284e96b5747a1bfc2d38fdb5768a6b5f67ff7d62144ed67b828260405161184d929190612745565b60405180910390a15050565b600080600061186a8989898761031e565b90506009600082815260200190815260200160002091505060008060008061189c8a866000015487600201548a610a66565b915091508193506118cc85600001546118be8a8461159190919063ffffffff16565b61173a90919063ffffffff16565b92505050600080600080600560009054906101000a900473ffffffffffffffffffffffffffffffffffffffff1673ffffffffffffffffffffffffffffffffffffffff166317bbf25c8b6040518263ffffffff1660e01b815260040161193191906121c9565b602060405180830381865afa15801561194e573d6000803e3d6000fd5b505050506040513d601f19601f820116820180604052508101906119729190612718565b9050611987818361144290919063ffffffff16565b505085600001548903611a9c578560010154915085600101549250808310156119e5576040517f08c379a00000000000000000000000000000000000000000000000000000000081526004016119dc90612ceb565b60405180910390fd5b84611a40576119fd818561144290919063ffffffff16565b831015611a3f576040517f08c379a0000000000000000000000000000000000000000000000000000000008152600401611a3690612d7d565b60405180910390fd5b5b84611a6f57611a6a81611a5c868661157b90919063ffffffff16565b61157b90919063ffffffff16565b611a95565b611a9481611a86868661144290919063ffffffff16565b61157b90919063ffffffff16565b5b9250611b13565b8991506001151585151503611aea57808410611acc57611ac5818561157b90919063ffffffff16565b9250611ae5565b839250611ae2818361144290919063ffffffff16565b91505b611b12565b611b0f81611b01868561144290919063ffffffff16565b61144290919063ffffffff16565b91505b5b81866001015410611b4257611b3582876001015461157b90919063ffffffff16565b8660010181905550611b87565b6000600114611b86576040517f08c379a0000000000000000000000000000000000000000000000000000000008152600401611b7d90612e0f565b60405180910390fd5b5b50506000600460009054906101000a900473ffffffffffffffffffffffffffffffffffffffff1673ffffffffffffffffffffffffffffffffffffffff166368ce13d68c856040518363ffffffff1660e01b8152600401611be8929190612745565b602060405180830381865afa158015611c05573d6000803e3d6000fd5b505050506040513d601f19601f82011682018060405250810190611c299190612718565b905083611c8757611c8281600760008e73ffffffffffffffffffffffffffffffffffffffff1673ffffffffffffffffffffffffffffffffffffffff1681526020019081526020016000205461144290919063ffffffff16565b611cda565b611cd981600760008e73ffffffffffffffffffffffffffffffffffffffff1673ffffffffffffffffffffffffffffffffffffffff1681526020019081526020016000205461157b90919063ffffffff16565b5b600760008d73ffffffffffffffffffffffffffffffffffffffff1673ffffffffffffffffffffffffffffffffffffffff1681526020019081526020016000208190555081955050505050509695505050505050565b8273ffffffffffffffffffffffffffffffffffffffff1663a9059cbb82846040518363ffffffff1660e01b8152600401611d6a929190612745565b6020604051808303816000875af1158015611d89573d6000803e3d6000fd5b505050506040513d601f19601f82011682018060405250810190611dad9190612e44565b508273ffffffffffffffffffffffffffffffffffffffff166370a08231306040518263ffffffff1660e01b8152600401611de791906126e8565b602060405180830381865afa158015611e04573d6000803e3d6000fd5b505050506040513d601f19601f82011682018060405250810190611e289190612718565b600660008573ffffffffffffffffffffffffffffffffffffffff1673ffffffffffffffffffffffffffffffffffffffff16815260200190815260200160002081905550505050565b6000838311158290611eb8576040517f08c379a0000000000000000000000000000000000000000000000000000000008152600401611eaf9190612ef0565b60405180910390fd5b5082840390509392505050565b600080fd5b600073ffffffffffffffffffffffffffffffffffffffff82169050919050565b6000611ef582611eca565b9050919050565b611f0581611eea565b8114611f1057600080fd5b50565b600081359050611f2281611efc565b92915050565b60008115159050919050565b611f3d81611f28565b8114611f4857600080fd5b50565b600081359050611f5a81611f34565b92915050565b60008060008060808587031215611f7a57611f79611ec5565b5b6000611f8887828801611f13565b9450506020611f9987828801611f13565b9350506040611faa87828801611f13565b9250506060611fbb87828801611f4b565b91505092959194509250565b6000819050919050565b611fda81611fc7565b82525050565b6000602082019050611ff56000830184611fd1565b92915050565b6000819050919050565b61200e81611ffb565b811461201957600080fd5b50565b60008135905061202b81612005565b92915050565b600080600080600060a0868803121561204d5761204c611ec5565b5b600061205b88828901611f13565b955050602061206c88828901611f13565b945050604061207d88828901611f13565b935050606061208e8882890161201c565b925050608061209f88828901611f4b565b9150509295509295909350565b6120b581611fc7565b81146120c057600080fd5b50565b6000813590506120d2816120ac565b92915050565b6000602082840312156120ee576120ed611ec5565b5b60006120fc848285016120c3565b91505092915050565b61210e81611ffb565b82525050565b6000819050919050565b61212781612114565b82525050565b600060e082019050612142600083018a612105565b61214f6020830189612105565b61215c6040830188612105565b6121696060830187612105565b6121766080830186612105565b61218360a083018561211e565b61219060c0830184612105565b98975050505050505050565b6000602082840312156121b2576121b1611ec5565b5b60006121c084828501611f13565b91505092915050565b60006020820190506121de6000830184612105565b92915050565b600080600080608085870312156121fe576121fd611ec5565b5b600061220c87828801611f13565b945050602061221d8782880161201c565b935050604061222e8782880161201c565b925050606061223f87828801611f4b565b91505092959194509250565b61225481611f28565b82525050565b600060408201905061226f600083018561224b565b61227c6020830184612105565b9392505050565b6000806040838503121561229a57612299611ec5565b5b60006122a885828601611f13565b92505060206122b985828601611f13565b9150509250929050565b600080600080600080600060e0888a0312156122e2576122e1611ec5565b5b60006122f08a828b01611f13565b97505060206123018a828b01611f13565b96505060406123128a828b01611f13565b95505060606123238a828b0161201c565b94505060806123348a828b0161201c565b93505060a06123458a828b01611f4b565b92505060c06123568a828b01611f13565b91505092959891949750929550565b60008060006060848603121561237e5761237d611ec5565b5b600061238c86828701611f13565b935050602061239d86828701611f13565b92505060406123ae86828701611f13565b9150509250925092565b60008060008060008060c087890312156123d5576123d4611ec5565b5b60006123e389828a01611f13565b96505060206123f489828a0161201c565b955050604061240589828a0161201c565b945050606061241689828a01611f4b565b935050608061242789828a0161201c565b92505060a061243889828a0161201c565b9150509295509295509295565b600080600080600060a0868803121561246157612460611ec5565b5b600061246f88828901611f13565b955050602061248088828901611f13565b945050604061249188828901611f13565b93505060606124a288828901611f4b565b92505060806124b388828901611f13565b9150509295509295909350565b60006020820190506124d5600083018461224b565b92915050565b60008160601b9050919050565b60006124f3826124db565b9050919050565b6000612505826124e8565b9050919050565b61251d61251882611eea565b6124fa565b82525050565b60008160f81b9050919050565b600061253b82612523565b9050919050565b600061254d82612530565b9050919050565b61256561256082611f28565b612542565b82525050565b6000612577828761250c565b601482019150612587828661250c565b601482019150612597828561250c565b6014820191506125a78284612554565b60018201915081905095945050505050565b600082825260208201905092915050565b7f5265656e7472616e637947756172643a207265656e7472616e742063616c6c00600082015250565b6000612600601f836125b9565b915061260b826125ca565b602082019050919050565b6000602082019050818103600083015261262f816125f3565b9050919050565b7f696e637265617365506f736974696f6e3a206163636f756e74203d3d20300000600082015250565b600061266c601e836125b9565b915061267782612636565b602082019050919050565b6000602082019050818103600083015261269b8161265f565b9050919050565b6126ab81611eea565b82525050565b60006060820190506126c660008301866126a2565b6126d360208301856126a2565b6126e0604083018461224b565b949350505050565b60006020820190506126fd60008301846126a2565b92915050565b60008151905061271281612005565b92915050565b60006020828403121561272e5761272d611ec5565b5b600061273c84828501612703565b91505092915050565b600060408201905061275a60008301856126a2565b6127676020830184612105565b9392505050565b7f5f76616c69646174654c657665726167653a206c69717569646174696f6e207260008201527f69736b0000000000000000000000000000000000000000000000000000000000602082015250565b60006127ca6023836125b9565b91506127d58261276e565b604082019050919050565b600060208201905081810360008301526127f9816127bd565b9050919050565b7f67657444656c74613a206176657261675072696365203d3d2030000000000000600082015250565b6000612836601a836125b9565b915061284182612800565b602082019050919050565b6000602082019050818103600083015261286581612829565b9050919050565b7f6465637265617365506f736974696f6e3a206163636f756e74203d3d20300000600082015250565b60006128a2601e836125b9565b91506128ad8261286c565b602082019050919050565b600060208201905081810360008301526128d181612895565b9050919050565b7f6465637265617365506f736974696f6e3a2073697a65203d3d20300000000000600082015250565b600061290e601b836125b9565b9150612919826128d8565b602082019050919050565b6000602082019050818103600083015261293d81612901565b9050919050565b7f6465637265617365506f736974696f6e3a2073697a6544656c746120746f6f2060008201527f6269670000000000000000000000000000000000000000000000000000000000602082015250565b60006129a06023836125b9565b91506129ab82612944565b604082019050919050565b600060208201905081810360008301526129cf81612993565b9050919050565b7f6465637265617365506f736974696f6e3a20636f6c6c61746572616c44656c7460008201527f6120746f6f206269670000000000000000000000000000000000000000000000602082015250565b6000612a326029836125b9565b9150612a3d826129d6565b604082019050919050565b60006020820190508181036000830152612a6181612a25565b9050919050565b7f5661756c643a206e6f7420676f76000000000000000000000000000000000000600082015250565b6000612a9e600e836125b9565b9150612aa982612a68565b602082019050919050565b60006020820190508181036000830152612acd81612a91565b9050919050565b7f4e487b7100000000000000000000000000000000000000000000000000000000600052601160045260246000fd5b6000612b0e82611ffb565b9150612b1983611ffb565b9250828201905080821115612b3157612b30612ad4565b5b92915050565b6000612b4282611ffb565b9150612b4d83611ffb565b9250828203905081811115612b6557612b64612ad4565b5b92915050565b6000612b7682611ffb565b9150612b8183611ffb565b9250828202612b8f81611ffb565b91508282048414831517612ba657612ba5612ad4565b5b5092915050565b7f5f696e6372656173655265736572766564416d6f756e743a2000000000000000600082015250565b6000612be36019836125b9565b9150612bee82612bad565b602082019050919050565b60006020820190508181036000830152612c1281612bd6565b9050919050565b7f4e487b7100000000000000000000000000000000000000000000000000000000600052601260045260246000fd5b6000612c5382611ffb565b9150612c5e83611ffb565b925082612c6e57612c6d612c19565b5b828204905092915050565b7f5f726564756365436f6c6c61746572616c3a20636f6c6c6c61746572616c206360008201527f616e6e6f7420636f766572206665657300000000000000000000000000000000602082015250565b6000612cd56030836125b9565b9150612ce082612c79565b604082019050919050565b60006020820190508181036000830152612d0481612cc8565b9050919050565b7f5f726564756365436f6c6c61746572616c3a20636f6c6c61746572616c20636160008201527f6e6e6f7420636f766572206c6f73730000000000000000000000000000000000602082015250565b6000612d67602f836125b9565b9150612d7282612d0b565b604082019050919050565b60006020820190508181036000830152612d9681612d5a565b9050919050565b7f6465637265617365506f736974696f6e3a206c69717569646174696f6e20726960008201527f736b000000000000000000000000000000000000000000000000000000000000602082015250565b6000612df96022836125b9565b9150612e0482612d9d565b604082019050919050565b60006020820190508181036000830152612e2881612dec565b9050919050565b600081519050612e3e81611f34565b92915050565b600060208284031215612e5a57612e59611ec5565b5b6000612e6884828501612e2f565b91505092915050565b600081519050919050565b60005b83811015612e9a578082015181840152602081019050612e7f565b60008484015250505050565b6000601f19601f8301169050919050565b6000612ec282612e71565b612ecc81856125b9565b9350612edc818560208601612e7c565b612ee581612ea6565b840191505092915050565b60006020820190508181036000830152612f0a8184612eb7565b90509291505056fea26469706673582212209eb9edfa9b52b4c19ac7b5e3b279fb19a606ada7a1658c49106db22c8750aa1a64736f6c63430008110033",
  "linkReferences": {},
  "deployedLinkReferences": {}
}