{
  "_format": "hh-sol-artifact-1",
  "contractName": "Vault",
  "sourceName": "contracts/core/Vault.sol",
  "abi": [
    {
      "inputs": [],
      "stateMutability": "nonpayable",
      "type": "constructor"
    },
    {
      "anonymous": false,
      "inputs": [
        {
          "indexed": false,
          "internalType": "address",
          "name": "token",
          "type": "address"
        },
        {
          "indexed": false,
          "internalType": "uint256",
          "name": "amount",
          "type": "uint256"
        }
      ],
      "name": "IncreaseReservedAmount",
      "type": "event"
    },
    {
      "inputs": [
        {
          "internalType": "address",
          "name": "_account",
          "type": "address"
        },
        {
          "internalType": "address",
          "name": "_collateralToken",
          "type": "address"
        },
        {
          "internalType": "address",
          "name": "_indexToken",
          "type": "address"
        },
        {
          "internalType": "uint256",
          "name": "_collateralDelta",
          "type": "uint256"
        },
        {
          "internalType": "uint256",
          "name": "_sizeDelta",
          "type": "uint256"
        },
        {
          "internalType": "bool",
          "name": "_isLong",
          "type": "bool"
        },
        {
          "internalType": "address",
          "name": "_receiver",
          "type": "address"
        }
      ],
      "name": "decreasePosition",
      "outputs": [],
      "stateMutability": "nonpayable",
      "type": "function"
    },
    {
      "inputs": [
        {
          "internalType": "address",
          "name": "_token",
          "type": "address"
        },
        {
          "internalType": "uint256",
          "name": "_size",
          "type": "uint256"
        },
        {
          "internalType": "uint256",
          "name": "_averagePrice",
          "type": "uint256"
        },
        {
          "internalType": "bool",
          "name": "_isLong",
          "type": "bool"
        }
      ],
      "name": "getDelta",
      "outputs": [
        {
          "internalType": "bool",
          "name": "",
          "type": "bool"
        },
        {
          "internalType": "uint256",
          "name": "",
          "type": "uint256"
        }
      ],
      "stateMutability": "view",
      "type": "function"
    },
    {
      "inputs": [
        {
          "internalType": "address",
          "name": "_token",
          "type": "address"
        },
        {
          "internalType": "uint256",
          "name": "_size",
          "type": "uint256"
        },
        {
          "internalType": "uint256",
          "name": "_averagePrice",
          "type": "uint256"
        },
        {
          "internalType": "bool",
          "name": "_isLong",
          "type": "bool"
        },
        {
          "internalType": "uint256",
          "name": "_nextPrice",
          "type": "uint256"
        },
        {
          "internalType": "uint256",
          "name": "_sizeDelta",
          "type": "uint256"
        }
      ],
      "name": "getNextAveragePrice",
      "outputs": [
        {
          "internalType": "uint256",
          "name": "",
          "type": "uint256"
        }
      ],
      "stateMutability": "view",
      "type": "function"
    },
    {
      "inputs": [
        {
          "internalType": "address",
          "name": "_account",
          "type": "address"
        },
        {
          "internalType": "address",
          "name": "_collateralToken",
          "type": "address"
        },
        {
          "internalType": "address",
          "name": "_indexToken",
          "type": "address"
        },
        {
          "internalType": "bool",
          "name": "_isLong",
          "type": "bool"
        }
      ],
      "name": "getPositionKey",
      "outputs": [
        {
          "internalType": "bytes32",
          "name": "",
          "type": "bytes32"
        }
      ],
      "stateMutability": "pure",
      "type": "function"
    },
    {
      "inputs": [
        {
          "internalType": "address",
          "name": "_account",
          "type": "address"
        },
        {
          "internalType": "address",
          "name": "_collateralToken",
          "type": "address"
        },
        {
          "internalType": "address",
          "name": "_indexToken",
          "type": "address"
        },
        {
          "internalType": "uint256",
          "name": "_sizeDelta",
          "type": "uint256"
        },
        {
          "internalType": "bool",
          "name": "_isLong",
          "type": "bool"
        }
      ],
      "name": "increasePosition",
      "outputs": [],
      "stateMutability": "nonpayable",
      "type": "function"
    },
    {
      "inputs": [
        {
          "internalType": "address",
          "name": "_tokenUtils",
          "type": "address"
        },
        {
          "internalType": "address",
          "name": "_feeManager",
          "type": "address"
        }
      ],
      "name": "initialization",
      "outputs": [],
      "stateMutability": "nonpayable",
      "type": "function"
    },
    {
      "inputs": [
        {
          "internalType": "address",
          "name": "",
          "type": "address"
        }
      ],
      "name": "isManager",
      "outputs": [
        {
          "internalType": "bool",
          "name": "",
          "type": "bool"
        }
      ],
      "stateMutability": "view",
      "type": "function"
    },
    {
      "inputs": [
        {
          "internalType": "address",
          "name": "_account",
          "type": "address"
        },
        {
          "internalType": "address",
          "name": "_collateralToken",
          "type": "address"
        },
        {
          "internalType": "address",
          "name": "_indexToken",
          "type": "address"
        },
        {
          "internalType": "bool",
          "name": "_isLong",
          "type": "bool"
        },
        {
          "internalType": "address",
          "name": "_feeReceiver",
          "type": "address"
        }
      ],
      "name": "liquidatePosition",
      "outputs": [],
      "stateMutability": "nonpayable",
      "type": "function"
    },
    {
      "inputs": [
        {
          "internalType": "address",
          "name": "",
          "type": "address"
        }
      ],
      "name": "poolAmounts",
      "outputs": [
        {
          "internalType": "uint256",
          "name": "",
          "type": "uint256"
        }
      ],
      "stateMutability": "view",
      "type": "function"
    },
    {
      "inputs": [
        {
          "internalType": "bytes32",
          "name": "",
          "type": "bytes32"
        }
      ],
      "name": "positions",
      "outputs": [
        {
          "internalType": "uint256",
          "name": "size",
          "type": "uint256"
        },
        {
          "internalType": "uint256",
          "name": "collateral",
          "type": "uint256"
        },
        {
          "internalType": "uint256",
          "name": "averagePrice",
          "type": "uint256"
        },
        {
          "internalType": "uint256",
          "name": "entryFundingRate",
          "type": "uint256"
        },
        {
          "internalType": "uint256",
          "name": "reserveAmount",
          "type": "uint256"
        },
        {
          "internalType": "int256",
          "name": "realisedPnl",
          "type": "int256"
        },
        {
          "internalType": "uint256",
          "name": "lastIncreasedTime",
          "type": "uint256"
        }
      ],
      "stateMutability": "view",
      "type": "function"
    },
    {
      "inputs": [
        {
          "internalType": "address",
          "name": "",
          "type": "address"
        }
      ],
      "name": "reservedAmounts",
      "outputs": [
        {
          "internalType": "uint256",
          "name": "",
          "type": "uint256"
        }
      ],
      "stateMutability": "view",
      "type": "function"
    },
    {
      "inputs": [
        {
          "internalType": "address",
          "name": "_manager",
          "type": "address"
        }
      ],
      "name": "setManager",
      "outputs": [],
      "stateMutability": "nonpayable",
      "type": "function"
    },
    {
      "inputs": [
        {
          "internalType": "address",
          "name": "_tokenIn",
          "type": "address"
        },
        {
          "internalType": "address",
          "name": "_tokenOut",
          "type": "address"
        },
        {
          "internalType": "address",
          "name": "_receiver",
          "type": "address"
        }
      ],
      "name": "swap",
      "outputs": [],
      "stateMutability": "nonpayable",
      "type": "function"
    },
    {
      "inputs": [
        {
          "internalType": "address",
          "name": "",
          "type": "address"
        }
      ],
      "name": "tokenBalances",
      "outputs": [
        {
          "internalType": "uint256",
          "name": "",
          "type": "uint256"
        }
      ],
      "stateMutability": "view",
      "type": "function"
    }
  ],
  "bytecode": "0x608060405234801561001057600080fd5b50600160008190555033600160006101000a81548173ffffffffffffffffffffffffffffffffffffffff021916908373ffffffffffffffffffffffffffffffffffffffff1602179055506001600260003373ffffffffffffffffffffffffffffffffffffffff1673ffffffffffffffffffffffffffffffffffffffff16815260200190815260200160002060006101000a81548160ff021916908315150217905550611e40806100c16000396000f3fe608060405234801561001057600080fd5b50600436106100ea5760003560e01c806382a084901161008c578063c3c7b9e911610066578063c3c7b9e914610286578063d0ebdbe7146102b6578063de2ea948146102d2578063f3ae2415146102ee576100ea565b806382a084901461021e578063933162121461023a578063a9af372d14610256576100ea565b8063523fba7f116100c8578063523fba7f1461017157806352f55eed146101a15780636a7bc8b4146101d15780637415aa8a14610202576100ea565b80632d4b0576146100ef57806348d91abf1461011f578063514ea4bf1461013b575b600080fd5b610109600480360381019061010491906112ed565b61031e565b604051610116919061136d565b60405180910390f35b610139600480360381019061013491906113be565b610357565b005b61015560048036038101906101509190611465565b6109cf565b60405161016897969594939291906114ba565b60405180910390f35b61018b60048036038101906101869190611529565b610a11565b6040516101989190611556565b60405180910390f35b6101bb60048036038101906101b69190611529565b610a29565b6040516101c89190611556565b60405180910390f35b6101eb60048036038101906101e69190611571565b610a41565b6040516101f99291906115e7565b60405180910390f35b61021c60048036038101906102179190611610565b610bb2565b005b61023860048036038101906102339190611650565b610c38565b005b610254600480360381019061024f91906116f2565b610c96565b005b610270600480360381019061026b9190611745565b610cf0565b60405161027d9190611556565b60405180910390f35b6102a0600480360381019061029b9190611529565b610dc5565b6040516102ad9190611556565b60405180910390f35b6102d060048036038101906102cb9190611529565b610ddd565b005b6102ec60048036038101906102e791906117d2565b610ec8565b005b61030860048036038101906103039190611529565b610f24565b604051610315919061184d565b60405180910390f35b60008484848460405160200161033794939291906118f8565b604051602081830303815290604052805190602001209050949350505050565b60026000540361039c576040517f08c379a0000000000000000000000000000000000000000000000000000000008152600401610393906119a3565b60405180910390fd5b6002600081905550600073ffffffffffffffffffffffffffffffffffffffff168573ffffffffffffffffffffffffffffffffffffffff1603610413576040517f08c379a000000000000000000000000000000000000000000000000000000000815260040161040a90611a0f565b60405180910390fd5b60008211610456576040517f08c379a000000000000000000000000000000000000000000000000000000000815260040161044d90611aa1565b60405180910390fd5b600360009054906101000a900473ffffffffffffffffffffffffffffffffffffffff1673ffffffffffffffffffffffffffffffffffffffff1663db7524798585846040518463ffffffff1660e01b81526004016104b593929190611ad0565b60006040518083038186803b1580156104cd57600080fd5b505afa1580156104e1573d6000803e3d6000fd5b5050505060006104f38686868561031e565b905060006008600083815260200190815260200160002090506000600360009054906101000a900473ffffffffffffffffffffffffffffffffffffffff1673ffffffffffffffffffffffffffffffffffffffff166341976e09876040518263ffffffff1660e01b81526004016105699190611b07565b602060405180830381865afa158015610586573d6000803e3d6000fd5b505050506040513d601f19601f820116820180604052508101906105aa9190611b37565b905060008260000154036105c2578082600201819055505b600082600001541180156105d65750600085115b156105fa576105f1868360000154846002015487858a610cf0565b82600201819055505b600080600460009054906101000a900473ffffffffffffffffffffffffffffffffffffffff1673ffffffffffffffffffffffffffffffffffffffff166317bbf25c886040518263ffffffff1660e01b81526004016106589190611556565b602060405180830381865afa158015610675573d6000803e3d6000fd5b505050506040513d601f19601f820116820180604052508101906106999190611b37565b90506106ae8183610f4490919063ffffffff16565b506000600360009054906101000a900473ffffffffffffffffffffffffffffffffffffffff1673ffffffffffffffffffffffffffffffffffffffff166368ce13d68b856040518363ffffffff1660e01b815260040161070e929190611b64565b602060405180830381865afa15801561072b573d6000803e3d6000fd5b505050506040513d601f19601f8201168201806040525081019061074f9190611b37565b9050600460009054906101000a900473ffffffffffffffffffffffffffffffffffffffff1673ffffffffffffffffffffffffffffffffffffffff16634ef697508b836040518363ffffffff1660e01b81526004016107ae929190611b64565b600060405180830381600087803b1580156107c857600080fd5b505af11580156107dc573d6000803e3d6000fd5b5050505060006107eb8b610f5a565b90506000600360009054906101000a900473ffffffffffffffffffffffffffffffffffffffff1673ffffffffffffffffffffffffffffffffffffffff1663bd1b12988d846040518363ffffffff1660e01b815260040161084c929190611b64565b602060405180830381865afa158015610869573d6000803e3d6000fd5b505050506040513d601f19601f8201168201806040525081019061088d9190611b37565b90506108a6818860010154610f4490919063ffffffff16565b87600101819055506108c585886001015461107d90919063ffffffff16565b87600101819055506108e48a8860000154610f4490919063ffffffff16565b87600001819055506000600360009054906101000a900473ffffffffffffffffffffffffffffffffffffffff1673ffffffffffffffffffffffffffffffffffffffff166368ce13d68e8d6040518363ffffffff1660e01b815260040161094b929190611b64565b602060405180830381865afa158015610968573d6000803e3d6000fd5b505050506040513d601f19601f8201168201806040525081019061098c9190611b37565b90506109a5818960040154610f4490919063ffffffff16565b88600401819055506109b78d82611093565b50505050505050505060016000819055505050505050565b60086020528060005260406000206000915090508060000154908060010154908060020154908060030154908060040154908060050154908060060154905087565b60056020528060005260406000206000915090505481565b60066020528060005260406000206000915090505481565b60008060008411610a87576040517f08c379a0000000000000000000000000000000000000000000000000000000008152600401610a7e90611bd9565b60405180910390fd5b6000600360009054906101000a900473ffffffffffffffffffffffffffffffffffffffff1673ffffffffffffffffffffffffffffffffffffffff166341976e09886040518263ffffffff1660e01b8152600401610ae49190611b07565b602060405180830381865afa158015610b01573d6000803e3d6000fd5b505050506040513d601f19601f82011682018060405250810190610b259190611b37565b90506000818611610b4857610b43868361107d90919063ffffffff16565b610b5c565b610b5b828761107d90919063ffffffff16565b5b90506000610b8587610b77848b61122690919063ffffffff16565b61123c90919063ffffffff16565b905060008615610b99578784119050610b9f565b83881190505b8082955095505050505094509492505050565b81600360006101000a81548173ffffffffffffffffffffffffffffffffffffffff021916908373ffffffffffffffffffffffffffffffffffffffff16021790555080600460006101000a81548173ffffffffffffffffffffffffffffffffffffffff021916908373ffffffffffffffffffffffffffffffffffffffff1602179055505050565b600260005403610c7d576040517f08c379a0000000000000000000000000000000000000000000000000000000008152600401610c74906119a3565b60405180910390fd5b6002600081905550600160008190555050505050505050565b600260005403610cdb576040517f08c379a0000000000000000000000000000000000000000000000000000000008152600401610cd2906119a3565b60405180910390fd5b60026000819055506001600081905550505050565b6000806000610d0189898989610a41565b915091506000610d1a858a610f4490919063ffffffff16565b905060008715610d5c5783610d4157610d3c838361107d90919063ffffffff16565b610d55565b610d548383610f4490919063ffffffff16565b5b9050610d90565b83610d7957610d748383610f4490919063ffffffff16565b610d8d565b610d8c838361107d90919063ffffffff16565b5b90505b610db581610da7848a61122690919063ffffffff16565b61123c90919063ffffffff16565b9450505050509695505050505050565b60076020528060005260406000206000915090505481565b600160009054906101000a900473ffffffffffffffffffffffffffffffffffffffff1673ffffffffffffffffffffffffffffffffffffffff163373ffffffffffffffffffffffffffffffffffffffff1614610e6d576040517f08c379a0000000000000000000000000000000000000000000000000000000008152600401610e6490611c45565b60405180910390fd5b6001600260008373ffffffffffffffffffffffffffffffffffffffff1673ffffffffffffffffffffffffffffffffffffffff16815260200190815260200160002060006101000a81548160ff02191690831515021790555050565b600260005403610f0d576040517f08c379a0000000000000000000000000000000000000000000000000000000008152600401610f04906119a3565b60405180910390fd5b600260008190555060016000819055505050505050565b60026020528060005260406000206000915054906101000a900460ff1681565b60008183610f529190611c94565b905092915050565b600080600560008473ffffffffffffffffffffffffffffffffffffffff1673ffffffffffffffffffffffffffffffffffffffff16815260200190815260200160002054905060008373ffffffffffffffffffffffffffffffffffffffff166370a08231306040518263ffffffff1660e01b8152600401610fda9190611b07565b602060405180830381865afa158015610ff7573d6000803e3d6000fd5b505050506040513d601f19601f8201168201806040525081019061101b9190611b37565b905080600560008673ffffffffffffffffffffffffffffffffffffffff1673ffffffffffffffffffffffffffffffffffffffff16815260200190815260200160002081905550611074828261107d90919063ffffffff16565b92505050919050565b6000818361108b9190611cc8565b905092915050565b6110e581600760008573ffffffffffffffffffffffffffffffffffffffff1673ffffffffffffffffffffffffffffffffffffffff16815260200190815260200160002054610f4490919063ffffffff16565b600760008473ffffffffffffffffffffffffffffffffffffffff1673ffffffffffffffffffffffffffffffffffffffff16815260200190815260200160002081905550600660008373ffffffffffffffffffffffffffffffffffffffff1673ffffffffffffffffffffffffffffffffffffffff16815260200190815260200160002054600760008473ffffffffffffffffffffffffffffffffffffffff1673ffffffffffffffffffffffffffffffffffffffff1681526020019081526020016000205411156111e9576040517f08c379a00000000000000000000000000000000000000000000000000000000081526004016111e090611d48565b60405180910390fd5b7faa5649d82f5462be9d19b0f2b31a59b2259950a6076550bac9f3a1c07db9f66d828260405161121a929190611b64565b60405180910390a15050565b600081836112349190611d68565b905092915050565b6000818361124a9190611dd9565b905092915050565b600080fd5b600073ffffffffffffffffffffffffffffffffffffffff82169050919050565b600061128282611257565b9050919050565b61129281611277565b811461129d57600080fd5b50565b6000813590506112af81611289565b92915050565b60008115159050919050565b6112ca816112b5565b81146112d557600080fd5b50565b6000813590506112e7816112c1565b92915050565b6000806000806080858703121561130757611306611252565b5b6000611315878288016112a0565b9450506020611326878288016112a0565b9350506040611337878288016112a0565b9250506060611348878288016112d8565b91505092959194509250565b6000819050919050565b61136781611354565b82525050565b6000602082019050611382600083018461135e565b92915050565b6000819050919050565b61139b81611388565b81146113a657600080fd5b50565b6000813590506113b881611392565b92915050565b600080600080600060a086880312156113da576113d9611252565b5b60006113e8888289016112a0565b95505060206113f9888289016112a0565b945050604061140a888289016112a0565b935050606061141b888289016113a9565b925050608061142c888289016112d8565b9150509295509295909350565b61144281611354565b811461144d57600080fd5b50565b60008135905061145f81611439565b92915050565b60006020828403121561147b5761147a611252565b5b600061148984828501611450565b91505092915050565b61149b81611388565b82525050565b6000819050919050565b6114b4816114a1565b82525050565b600060e0820190506114cf600083018a611492565b6114dc6020830189611492565b6114e96040830188611492565b6114f66060830187611492565b6115036080830186611492565b61151060a08301856114ab565b61151d60c0830184611492565b98975050505050505050565b60006020828403121561153f5761153e611252565b5b600061154d848285016112a0565b91505092915050565b600060208201905061156b6000830184611492565b92915050565b6000806000806080858703121561158b5761158a611252565b5b6000611599878288016112a0565b94505060206115aa878288016113a9565b93505060406115bb878288016113a9565b92505060606115cc878288016112d8565b91505092959194509250565b6115e1816112b5565b82525050565b60006040820190506115fc60008301856115d8565b6116096020830184611492565b9392505050565b6000806040838503121561162757611626611252565b5b6000611635858286016112a0565b9250506020611646858286016112a0565b9150509250929050565b600080600080600080600060e0888a03121561166f5761166e611252565b5b600061167d8a828b016112a0565b975050602061168e8a828b016112a0565b965050604061169f8a828b016112a0565b95505060606116b08a828b016113a9565b94505060806116c18a828b016113a9565b93505060a06116d28a828b016112d8565b92505060c06116e38a828b016112a0565b91505092959891949750929550565b60008060006060848603121561170b5761170a611252565b5b6000611719868287016112a0565b935050602061172a868287016112a0565b925050604061173b868287016112a0565b9150509250925092565b60008060008060008060c0878903121561176257611761611252565b5b600061177089828a016112a0565b965050602061178189828a016113a9565b955050604061179289828a016113a9565b94505060606117a389828a016112d8565b93505060806117b489828a016113a9565b92505060a06117c589828a016113a9565b9150509295509295509295565b600080600080600060a086880312156117ee576117ed611252565b5b60006117fc888289016112a0565b955050602061180d888289016112a0565b945050604061181e888289016112a0565b935050606061182f888289016112d8565b9250506080611840888289016112a0565b9150509295509295909350565b600060208201905061186260008301846115d8565b92915050565b60008160601b9050919050565b600061188082611868565b9050919050565b600061189282611875565b9050919050565b6118aa6118a582611277565b611887565b82525050565b60008160f81b9050919050565b60006118c8826118b0565b9050919050565b60006118da826118bd565b9050919050565b6118f26118ed826112b5565b6118cf565b82525050565b60006119048287611899565b6014820191506119148286611899565b6014820191506119248285611899565b60148201915061193482846118e1565b60018201915081905095945050505050565b600082825260208201905092915050565b7f5265656e7472616e637947756172643a207265656e7472616e742063616c6c00600082015250565b600061198d601f83611946565b915061199882611957565b602082019050919050565b600060208201905081810360008301526119bc81611980565b9050919050565b7f696e637265617365506f736974696f6e3a206163636f756e74203d3d20300000600082015250565b60006119f9601e83611946565b9150611a04826119c3565b602082019050919050565b60006020820190508181036000830152611a28816119ec565b9050919050565b7f696e637265617365506f736974696f6e3a205f73697a6544656c7461203d3d2060008201527f3000000000000000000000000000000000000000000000000000000000000000602082015250565b6000611a8b602183611946565b9150611a9682611a2f565b604082019050919050565b60006020820190508181036000830152611aba81611a7e565b9050919050565b611aca81611277565b82525050565b6000606082019050611ae56000830186611ac1565b611af26020830185611ac1565b611aff60408301846115d8565b949350505050565b6000602082019050611b1c6000830184611ac1565b92915050565b600081519050611b3181611392565b92915050565b600060208284031215611b4d57611b4c611252565b5b6000611b5b84828501611b22565b91505092915050565b6000604082019050611b796000830185611ac1565b611b866020830184611492565b9392505050565b7f67657444656c74613a206176657261675072696365203d3d2030000000000000600082015250565b6000611bc3601a83611946565b9150611bce82611b8d565b602082019050919050565b60006020820190508181036000830152611bf281611bb6565b9050919050565b7f5661756c643a206e6f7420676f76000000000000000000000000000000000000600082015250565b6000611c2f600e83611946565b9150611c3a82611bf9565b602082019050919050565b60006020820190508181036000830152611c5e81611c22565b9050919050565b7f4e487b7100000000000000000000000000000000000000000000000000000000600052601160045260246000fd5b6000611c9f82611388565b9150611caa83611388565b9250828201905080821115611cc257611cc1611c65565b5b92915050565b6000611cd382611388565b9150611cde83611388565b9250828203905081811115611cf657611cf5611c65565b5b92915050565b7f5f696e6372656173655265736572766564416d6f756e743a2000000000000000600082015250565b6000611d32601983611946565b9150611d3d82611cfc565b602082019050919050565b60006020820190508181036000830152611d6181611d25565b9050919050565b6000611d7382611388565b9150611d7e83611388565b9250828202611d8c81611388565b91508282048414831517611da357611da2611c65565b5b5092915050565b7f4e487b7100000000000000000000000000000000000000000000000000000000600052601260045260246000fd5b6000611de482611388565b9150611def83611388565b925082611dff57611dfe611daa565b5b82820490509291505056fea2646970667358221220724f41fd9b9dc30586d3079cec28658b4cf0bcce1a88d486a1ec1f3b6962eb5a64736f6c63430008110033",
  "linkReferences": {},
  "deployedLinkReferences": {}
}